:100000000C9446240C9477240C9477240C94772435
:100010000C9477240C9477240C9477240C947724F4
:100020000C9477240C9477240C9477240C947724E4
:100030000C9477240C9477240C9477240C947724D4
:100040000C9477240C9488E10C9477240C947724F6
:100050000C9477240C9477240C9470DE0D94734ADE
:100060000C9477240C942AA20C94F4A10C94772479
:100070000C9477240C9477240C9477240C94772494
:100080000C9477240C9477240C9477240C94772484
:100090000C9477240C9477240C9477240C94772474
:1000A0000C9477240C9477240C9477240C94772464
:1000B0000C9477240C9477240C9477240C94772454
:1000C0000C9477240C9477240C9477240C94772444
:1000D0000C9477240C9477240C9477240C94772434
:1000E0000C947724084AD73B3BCE016E84BCBFFDFD
:1000F000C12F3D6C74319ABD56833DDA3D00C77FF8
:1001000011BED9E4BB4C3E916BAAAABE0000008090
:100110003F05A84CCDB2D44EB93836A9020C50B91F
:10012000918688083CA6AAAA2ABE000000803F004B
:100130000D94D9450D94B0450D9406120D94D345F8
:100140000D94C1450D94B4100D941D090D94AC454A
:100150000D94EB450D9481060D94DD450D94E1451C
:100160000D94D30C0D94B8450D94E1210D94071214
:100170000D94030F0D944B510D949A450D94350B2E
:100180000D94901F0D94631F0D9493580D94CF45BB
:100190000D9407210D94CB450D94E7450D9495459D
:1001A0000D94BB450D94B4450D94C41F0D94C545E5
:1001B0004E414E494E495459494E46CDCCCC3D0A4C
:1001C000D7233C17B7D13877CC2B329595E6241F2F
:1001D000B14F0A000020410000C84200401C4620E8
:1001E000BCBE4CCA1B0E5AAEC59D7400407A10F3BB
:1001F0005A00A0724E18090010A5D4E80000E87655
:1002000048170000E40B54020000CA9A3B000000AB
:10021000E1F505000080969800000040420F0000C4
:1002200000A08601000000102700000000E8030085
:100230000000006400000000000A0000000000014F
:1002400000000000002C76D888DC674F0823DFC14F
:10025000DFAE59E1B1B796E5E3E453C63AE651990A
:100260007696E8E6C28426EB898C9B62ED407C6F33
:10027000FCEFBC9C9F40F2BAA56FA5F490055A2AEA
:10028000F75C936B6CF9676DC11BFCE0E40D47FEF6
:10029000F520E6B500D0ED902E03009435770500EB
:1002A00080841E080000204E0A000000C80C333372
:1002B00033330F986E12831141EF8D2114893BE681
:1002C0005516CFFEE6DB18D1844B381BF77C1D900A
:1002D0001DA4BBE424203284725E228100C9F12473
:1002E000ECA1E53D27554E4C4F41442046494C4139
:1002F0004D454E54004C4F41442046494C414D45DC
:100300004E540046494C414D454E54204348414EC1
:100310004745004361703A004D4541545041434BBD
:1003200000434F4F4C45525F54454D504552415448
:10033000555245004348414D4245525F54454D504A
:10034000455241545552450042414259535445503B
:1003500050494E470041524353004D4F54494F4E70
:100360005F4D4F44455300544845524D414C5F50FA
:10037000524F54454354494F4E004C4F4E475F46F1
:10038000494C454E414D45004155544F5245504F03
:1003900052545F53445F5354415455530053445F88
:1003A0005752495445005245504541540053444327
:1003B0004152440050524F4D50545F535550504F8E
:1003C000525400484F53545F414354494F4E5F438A
:1003D0004F4D4D414E445300454D455247454E43C8
:1003E000595F50415253455200434153455F4C4978
:1003F0004748545F4252494748544E45535300546E
:100400004F47474C455F4C494748545300534F466C
:1004100054574152455F504F574552004255494C41
:10042000445F50455243454E54004C4556454C4957
:100430004E475F44415441005A5F50524F4245007D
:1004400052554E4F5554004155544F4C4556454C0E
:10045000005052494E545F4A4F420050524F47524B
:10046000455353004155544F5245504F52545F54D9
:10047000454D50004155544F5245504F52545F50D6
:100480004F5300564F4C554D455452494300454536
:1004900050524F4D0042494E4152595F46494C45DA
:1004A0005F5452414E534645520053455249414CC8
:1004B0005F584F4E5F584F4646004649524D574190
:1004C00052455F4E414D453A4D61726C696E203226
:1004D0002E302E392E3120284D61792020342032C3
:1004E0003032322030363A30343A32372920534FC6
:1004F000555243455F434F44455F55524C3A6769F7
:10050000746875622E636F6D2F4D61726C696E46F3
:1005100069726D776172652F4D61726C696E2050E2
:10052000524F544F434F4C5F56455253494F4E3AEA
:10053000312E30204D414348494E455F5459504576
:100540003A4D43332076312E31204558545255448C
:1005500045525F434F554E543A3120555549443A20
:1005600063656465326132662D343161322D343712
:1005700034382D396231322D633535633632663386
:10058000363766660A00290A0020746F20003F5A39
:10059000206F7574206F662072616E676520280079
:1005A000290A0020746F20003F59206F7574206F56
:1005B000662072616E676520282D00290A0020746C
:1005C0006F20003F58206F7574206F662072616E37
:1005D000676520282D0050726F6265204F66667334
:1005E00065742058002569730025696D202569739D
:1005F000002569682025696D2025697300256964D7
:10060000202569682025696D202569730025697991
:1006100020256964202569682025696D2025697376
:1006200000436F6F6C696E672E2E2E0048656174F3
:10063000696E672E2E2E00452025530042656420EA
:10064000436F6F6C696E672E2E2E004265642048E2
:10065000656174696E672E2E2E0023646566696E6F
:10066000652044454641554C545F00626564004B2B
:100670006420004B6920004B702000504944204109
:1006800075746F74756E652066696E6973686564EC
:10069000212050757420746865206C617374204B40
:1006A000702C204B6920616E64204B6420636F6E58
:1006B0007374616E74732066726F6D2062656C6F07
:1006C0007720696E746F20436F6E6669677572611B
:1006D00074696F6E2E680A00504944204175746F2A
:1006E00074756E65206661696C6564212074696D3E
:1006F000656F75740A00504944204175746F7475B4
:100700006E65206661696C6564212054656D706555
:1007100072617475726520746F6F20686967680A0A
:1007200000204B643A2000204B693A2000204B7097
:100730003A200020436C6173736963205049442060
:100740000A00204E6F206F76657273686F6F740AAF
:10075000002054753A2000204B753A2000206D612E
:10076000783A2000206D696E3A200020643A20001B
:1007700020626961733A2000504944204175746FCA
:1007800074756E652073746172740A005049442058
:100790004175746F74756E65206661696C6564215E
:1007A0002054656D706572617475726520746F6F29
:1007B00020686967680A00504944204175746F7465
:1007C000756E6500504944204175746F74756E658F
:1007D000206661696C6564212042616420686561FE
:1007E0007465722069640A004572723A20757466F5
:1007F0003820666F6E74206E6F7420696E6974693C
:10080000616C697A65642E004572723A207574666F
:100810003820666F6E74206E6F7420696E6974691B
:10082000616C697A65642E004572723A207574664F
:100830003820666F6E74206E6F7420696E697469FB
:10084000616C697A65642E002568753A25303268D6
:10085000750025303268753A253032687500256894
:1008600075642025303268753A253032687500424B
:10087000656400456E636C6F73757265002020209F
:10088000202020200020202020001FE03FF03FF00B
:100890003FF01FE01FE03FF03FF03FF00FC0078048
:1008A00003001FE020102010201010201020201026
:1008B0002010303008400480030001FE0006018053
:1008C00008FC4010FC201078202030102C00D02E86
:1008D00031D02F7BD02F7BD02E31D02C00D02030A8
:1008E0001010782010FC2008FC4006018001FE005A
:1008F00001FE000601800986401387201787A02F7C
:1009000087D02F03D020301020781020781020308E
:10091000102F03D02F87D01787A013872009864078
:1009200006018001FE00FFFFC040002020001010E3
:10093000000808000404000203FFFF022200044430
:1009400000044400022200011100FFFFC04088A003
:1009500021111012220808000404000203FFFF6E98
:100960006F74696669636174696F6E200063616E9C
:1009700063656C005072696E742041626F727465B9
:1009800064004469736D6973730055492041626F57
:1009900072746564004D323500526573756D650083
:1009A00055492050617573650050617573696E67B4
:1009B0002E2E2E00726573756D65004D3234004524
:1009C0004550524F4D2056657273696F6E204572C7
:1009D000726F7200454550524F4D20496E646578E4
:1009E000204572726F7200454550524F4D20435260
:1009F00043204572726F72003F0049676E6F7265E7
:100A000000526573657400496E697469616C697A36
:100A10006520454550524F4D0050726F6265205A17
:100A2000204F6666736574004C6F6164206D6D00C5
:100A3000556E6C6F6164206D6D0046696C2E2044AC
:100A400069612E004520696E206D6D5E3300416442
:100A500076616E6365204B004D3330332055312075
:100A60004525692053256900504944204175746F1C
:100A700074756E65202A005049442D44202A005088
:100A800049442D49202A005049442D50202A002055
:100A9000082046616374002008204D61780020081A
:100AA000204D696E004F6666004F6E004175746F91
:100AB00074656D70005654726176204D696E0056F3
:100AC0006D696E00566D6178204500566D61782025
:100AD0005A00566D6178205900566D617820580093
:100AE000416D6178204500416D6178205A00416D6B
:100AF0006178205900416D6178205800412D547271
:100B00006176656C00412D526574726163740041B9
:100B10006363656C0056652D4A65726B00565A2DED
:100B20004A65726B0056592D4A65726B0056582DF6
:100B30004A65726B005A2050726F62652057697A5D
:100B40006172640050726F6265205A204F6666734E
:100B500065740050726F62652059204F6666736538
:100B6000740050726F62652058204F66667365741A
:100B700000452073746570732F6D6D005A20537497
:100B80006570732F6D6D00592053746570732F6DF0
:100B90006D00582053746570732F6D6D004164763D
:100BA000616E6365642053657474696E6773003F9A
:100BB0000043616E63656C00496E6974004D3432A8
:100BC0003800496E697469616C697A6520454550E1
:100BD000524F4D0046696C616D656E740054656DD1
:100BE00070657261747572650053746570732F6DF2
:100BF0006D0050726F6265204F6666736574730096
:100C00004A65726B00416363656C65726174696FFC
:100C10006E0056656C6F6369747900536574204883
:100C20006F6D65204F66667365747300436F6E6603
:100C3000696775726174696F6E005A2056616C75D0
:100C40006500496E646578205900496E64657820B6
:100C5000580053746F72652053657474696E6773BE
:100C6000004C6F61642053657474696E6773005043
:100C7000726F6265205A204F666673657400466124
:100C8000646520486569676874004F6666004F6E4A
:100C900000426564204C6576656C696E670045644A
:100CA0006974204D657368004C6576656C204265FB
:100CB00064004732394E00473239004175746F2065
:100CC000486F6D65004D6F74696F6E003F00436142
:100CD0006E63656C204F626A656374004E4F005905
:100CE00045530043616E63656C204F626A656374AF
:100CF000203D004D61696E00426564004E6F7A7A56
:100D00006C650046616E20537065656400436F6ECC
:100D100066696775726174696F6E004D3130392094
:100D200052323135004D3130392052323438000AD8
:100D30004739322045300A473120452D3430000AEA
:100D40004739322045300A473120453430004D3193
:100D500030392053300045787472756465722034E0
:100D6000306D6D00436F6F6C646F776E20486F74E9
:100D7000656E6400526574726163742034306D6D09
:100D800000507265686561742032343843005072D7
:100D900065686561742032313543004C6F616420B1
:100DA00053657474696E677300526573746F72650E
:100DB0002044656661756C74730053746F726520AE
:100DC00053657474696E6773005072656865617409
:100DD000202420436F6E66004F6666004F6E0052FF
:100DE000756E6F75742053656E736F720050726FFD
:100DF0006265205A204F66667365740041647661AF
:100E00006E6365642053657474696E677300507215
:100E10006568656174202620457874727564650084
:100E20004D61696E004D37303220542564004D36D7
:100E3000303020423020542564004D373032203B82
:100E40002564004D37303120542564004D37303251
:100E5000004D373031004D363030204230004D618A
:100E6000696E00436F6E74696E7565004F6666004B
:100E70004F6E0052756E6F75742053656E736F728E
:100E8000005075726765206D6F726500524553554D
:100E90004D45204F5054494F4E533A005052494E01
:100EA00054205041555345440020204E6F7A7A6CAF
:100EB000653A20005061726B696E672E2E2E00001D
:100EC000005761697420666F720066696C616D65B8
:100ED0006E74206368616E676500746F207374615F
:100EE0007274005761697420666F720066696C6184
:100EF0006D656E7420756E6C6F616400004E6F7A64
:100F00007A6C652068656174696E6700506C656114
:100F1000736520776169742E2E2E00005072657300
:100F20007320627574746F6E00746F2068656174ED
:100F3000206E6F7A7A6C650000496E73657274205A
:100F400066696C616D656E7400616E6420707265B7
:100F5000737320627574746F6E00746F20636F6EAC
:100F600074696E7565005761697420666F720066FA
:100F7000696C616D656E74206C6F61640000507205
:100F800065737320427574746F6E00746F207265A0
:100F900073756D65207072696E74000057616974B5
:100FA00020666F72207072696E7400746F207265B3
:100FB00073756D652E2E2E00005761697420666F63
:100FC000720066696C616D656E742070757267651C
:100FD00000003E2000256C642E25696D0045787464
:100FE000727564656420546F74616C003E20004C1F
:100FF0006F6E67657374204A6F622054696D650077
:101000003E2000546F74616C205072696E742054DD
:10101000696D6500436F6D706C65746564003A209E
:10102000005072696E7420436F756E74003A200030
:101030003135300035004245443A20312520626583
:10104000746120333935300052756E6177617920D3
:1010500057617463683A204F4E004D6178205465A3
:101060006D7000323935004D696E2054656D700029
:10107000350045313A2031252062657461203339CD
:101080003530005053550047656E657269630050F6
:10109000726F746F636F6C00312E30004261756443
:1010A000003235303030300052414D505320312E17
:1010B000340042696C696E656172204C6576656CBE
:1010C000696E6700457874727564657273003100EB
:1010D0006D61726C696E66772E6F7267004D433377
:1010E0002076312E3100323032312D30362D3237EC
:1010F00000322E302E392E31004D61726C696E0037
:101100005072696E74657220537461747300546810
:1011100065726D6973746F727300426F61726420DF
:10112000496E666F005072696E74657220496E6612
:101130006F004D61696E004731205A3830204633C8
:101140003830004731205A313020463330300047A4
:101150003120583130205939302046313830300074
:10116000473120583130205939302046313830301D
:10117000004731205839302059313020463138303D
:101180003000473120583130205931302046313835
:10119000303000474F204241434B00474F204C45E1
:1011A000465400474F20524947485400474F204477
:1011B0004F574E00474F2046524F4E5400474F2046
:1011C0005550004D61696E003F004261636B0053F2
:1011D000746F7000417474616368204D6564696167
:1011E000004D3231005072696E742066726F6D204E
:1011F0004D656469610052656C65617365204D657C
:10120000646961004D3232004368616E6765204653
:10121000696C616D656E74004661737420706F73E4
:101220006974696F6E696E6700436F6E6669677592
:10123000726174696F6E0054656D7065726174756A
:101240007265004D6F74696F6E00526573756D65E0
:10125000205072696E740041626F7574205072691B
:101260006E7465720043616E63656C204F626A65DF
:1012700063740054756E650053746F70205072690A
:101280006E74005061757365205072696E74004908
:101290006E666F2053637265656E003F0053746124
:1012A0007274205072696E740043616E63656C00E5
:1012B0005072696E740043616E6E6F7420656E7457
:1012C0006572207375626469723A2000022E2E00E6
:1012D0000152656672657368004261636B004D611F
:1012E000696E0000091200FC0A01E803D720FFFD27
:1012F0000EFD0BFD00000009000E010B0B090400A0
:101300008080808080808000008080040404090345
:101310000790909090080A0A090000242424FF24D2
:1013200024FF242424070B0B0901FF107C9290500A
:10133000381412927C10070A0A09010042A4A4483A
:101340001010244A4A84070A0A090100609090900C
:10135000606294889462010404090407808080809C
:10136000030C0C0903FF2040408080808080804077
:101370004020030C0C0903FF804040202020202047
:101380002040408007070709010310925438549207
:1013900010070707090101101010FE1010100204B9
:1013A000040904FEC0C04080070101090104FE02D7
:1013B0000202090400C0C0070A0A0901000204046D
:1013C00008101020404080070A0A090100384482B2
:1013D00082828282824438070A0A09010010305052
:1013E000901010101010FE070A0A090100384482FC
:1013F000020408102040FE070A0A090100FE020448
:1014000008180402028478070A0A090100040C146F
:10141000244484FE040404070A0A090100FE8080B3
:1014200080F80402028478070A0A0901003C40801F
:1014300080B8C482824438070A0A090100FE020407
:1014400004080810101010070A0A09010038448225
:1014500044384482824438070A0A09010038448229
:1014600082463A02020478020707090400C0C0005D
:101470000000C0C00209090904FEC0C0000000C08D
:10148000C040800509090902000810204080402062
:101490001008070404090102FE0000FE05090909FD
:1014A0000200804020100810204080070A0A09012D
:1014B0000038448202040810100010070A0A0901CB
:1014C0000038449AAAAAAAAA9C403C070A0A090121
:1014D0000010282828447C44828282070A0A0901D5
:1014E00000F8848284F884828284F8070A0A090159
:1014F000003C42808080808080423C070A0A0901CB
:1015000000F88482828282828284F8070A0A0901B2
:1015100000FE808080F880808080FE070A0A090132
:1015200000FE808080F88080808080070A0A0901A0
:101530000038448280808E82824438070A0A09017A
:101540000082828282FE8282828282050A0A0902E7
:1015500000F82020202020202020F8070A0A090176
:10156000003E080808080808888870070A0A090168
:101570000082848890A0D088848282070A0A0901A8
:1015800000808080808080808080FE070A0A0901B8
:10159000008282C6AA928282828282070A0A090196
:1015A000008282C2A2928A86828282070A0A090186
:1015B000007C82828282828282827C070A0A0901FE
:1015C00000F884828284F880808080080B0B0901F7
:1015D000FF384482828282828A443A01070A0A09D9
:1015E0000100F884828284F890888482070A0A09BC
:1015F00001007C8280807C020202827C070A0A0948
:101600000100FE101010101010101010070A0A0927
:10161000010082828282828282824438070A0A0919
:10162000010082828244444428282810070A0A09BB
:1016300001008282828292929292AA44070A0A0947
:10164000010082824428101028448282070A0A0975
:10165000010082824428101010101010070A0A0995
:101660000100FE0204081020408080FE040C0C09DA
:1016700003FFF080808080808080808080F0070A77
:101680000A09010080404020101008040402040CE4
:101690000C0902FFF010101010101010101010F0B4
:1016A000070404090106102844820801010900FF0B
:1016B000FF03030309030A8040200707070901000D
:1016C0007C02027E82867A070A0A090100808080F5
:1016D000BCC2828282C2BC0707070901007C8280EB
:1016E0008080827C070A0A0901000202027A86824F
:1016F0008282867A0707070901007C8282FE808247
:101700007C070A0A0901001C22222020F820202040
:1017100020070A0A0901FD7A84848478807C828209
:101720007C070A0A090100808080BCC28282828212
:1017300082050A0A090200600000E0202020202023
:10174000F8050D0D0902FD18000038080808080802
:1017500008888870070A0A090100808080848890C0
:10176000B0C88482050A0A090200E0202020202057
:10177000202020F8070707090100EC92929292922C
:1017800082070707090100BCC282828282820707A2
:10179000070901007C82828282827C070A0A090191
:1017A000FDB8C4828282C4B8808080070A0A090119
:1017B000FD3A46828282463A020202070707090181
:1017C000009C6242404040400707070901007C82BC
:1017D000807C02827C0709090901002020FC20206E
:1017E0002020221C0707070901008282828282864C
:1017F0007A07070709010082824444282810070756
:10180000070901008282929292AA44070707090100
:101810000082442810284482070A0A0901FD424236
:101820002424241818109060070707090100FE04FB
:1018300008102040FE060B0B0902001C202020206F
:10184000C0202020201C010C0C0904FF8080808017
:101850008080808080808080060B0B090100E01072
:101860001010100C10101010E0070303090107629C
:10187000928CFFFFFFFFFFFFFFFFFFFFFFFFFFFF58
:10188000FFFFFFFFFFFFFFFFFFFFFFFFFFFFFFFF68
:10189000FFFFFF00000009000E010B0B0904008090
:1018A0008000008080808080808006080809010018
:1018B00008789490A0A47840070A0A0901001C2225
:1018C0002020F8202060A25C070606090103827C24
:1018D00044447C82070A0A090100828244287C1061
:1018E0007C101010010B0B0904FF808080808000A9
:1018F0008080808080040B0B0902FF6090806090E4
:1019000090906010906003020209030BA0A00809E8
:10191000090900013C4299A5A1A599423C05070788
:10192000090103609070907800F807080809010128
:101930001224489090482412060404090102FC0471
:101940000404050101090204F80809090900013C21
:1019500042B9A5BDA9A5423C060101090109FC0443
:101960000404090306609090600709090901011049
:101970001010FE10101000FE04060609010460900D
:10198000106080F004060609010460902010906049
:1019900003030309030A2040800709090901FE82A5
:1019A00082828282C6BA8080070A0A0901007E8A82
:1019B0008A8A7A0A0A0A0A0A020202090404C0C0D0
:1019C0000403030902FD2090600306060901044098
:1019D000C0404040E0050606090104708888700098
:1019E000F8070808090101904824121224489007BA
:1019F0000A0A09010040C0404042E60A121A0607DE
:101A00000A0A09010040C040404CF2020C101E07B7
:101A10000A0A0901006090201092660A121A06074D
:101A20000A0A0901001000101020408082827C0701
:101A30000E0E0901002010080010282828447C44BC
:101A4000828282070E0E090100081020001028284B
:101A500028447C44828282070E0E0901001028442B
:101A60000010282828447C44828282070D0D090139
:101A70000034580010282828447C44828282070DB4
:101A80000D09010028280010282828447C4482825F
:101A900082070E0E0901001028281010282828445B
:101AA0007C44828282070A0A0901001E2828284EE7
:101AB000784888888E070D0D0901FD3C42808080A2
:101AC000808080423C082418070E0E090100201077
:101AD0000800FE808080F880808080FE070E0E095E
:101AE000010008102000FE808080F880808080FE49
:101AF000070E0E09010010284400FE808080F88047
:101B0000808080FE070D0D090100282800FE8080DE
:101B100080F880808080FE050E0E090200402010B3
:101B200000F82020202020202020F8050E0E090299
:101B30000010204000F82020202020202020F80540
:101B40000E0E09020020508800F8202020202020BE
:101B50002020F8050D0D090200505000F82020202B
:101B60002020202020F8070A0A0901007844424278
:101B7000F24242424478070D0D09010034580082B8
:101B800082C2A2928A86828282070E0E09010020FA
:101B90001008007C82828282828282827C070E0E02
:101BA000090100081020007C828282828282828267
:101BB0007C070E0E090100102844007C828282827C
:101BC000828282827C070D0D0901003458007C82DC
:101BD000828282828282827C070D0D090100282880
:101BE000007C82828282828282827C0707070901CE
:101BF0000182442810284482070C0C0901FF027C52
:101C0000868A8A9292A2A2C27C80070E0E090100E7
:101C10002010080082828282828282824438070EEB
:101C20000E09010008102000828282828282828254
:101C30004438070E0E090100102844008282828277
:101C4000828282824438070D0D0901002828008213
:101C5000828282828282824438070E0E0901000845
:101C600010200082824428101010101010070A0A59
:101C70000901008080FC828282FC808080060A0A42
:101C800009010038444448D04844444458070B0BE9
:101C9000090100201008007C02027E82867A070B70
:101CA0000B090100081020007C02027E82867A0760
:101CB0000B0B090100102844007C02027E82867A08
:101CC000070A0A0901003458007C02027E82867AE3
:101CD000070A0A0901002828007C02027E82867A0F
:101CE000070C0C09010010282810007C02027E82DB
:101CF000867A0707070901006C12127E90926C0722
:101D00000A0A0901FD7C82808080827C10483007AD
:101D10000B0B090100201008007C8282FE80827C6F
:101D2000070B0B090100081020007C8282FE8082D4
:101D30007C070B0B090100102844007C8282FE8086
:101D4000827C070A0A0901002828007C8282FE8022
:101D5000827C050C0C0902008040200000E020205D
:101D6000202020F8050C0C0902001020400000E0A3
:101D70002020202020F8050C0C09020020508800AB
:101D800000E02020202020F8050B0B090200505015
:101D90000000E02020202020F8070B0B090100485C
:101DA0003050083C448282824438070A0A09010004
:101DB000345800BCC28282828282070B0B09010068
:101DC000201008007C82828282827C070B0B090132
:101DD00000081020007C82828282827C070B0B0923
:101DE0000100102844007C82828282827C070A0AD9
:101DF0000901003458007C82828282827C070A0AB0
:101E00000901002828007C82828282827C070909DD
:101E100009010010381000FE0010381007090909E8
:101E200001FF027C8A8A92A2A27C80070B0B090127
:101E300000402010008282828282867A070B0B0982
:101E40000100081020008282828282867A070B0BB2
:101E5000090100102844008282828282867A070A61
:101E60000A0901002828008282828282867A070E6F
:101E70000E0901FD04081000424224242418181001
:101E80009060070B0B0901FE8080B8C4828282C477
:101E9000B88080070D0D0901FD242400424224244E
:101EA000241818109060000C0F00FE07022503BBD9
:101EB000017FFE08FE08FE05080806000040F0C885
:101EC0008888987810050808060000C0F888888877
:101ED0008888F80505050600012030F8302005083F
:101EE000080600002070F820202020E005090906DF
:101EF00000FF2070A8A8B888887020070505070093
:101F000001D86C366CD80509090600FFF8A8888846
:101F1000888888A8F8050A0A0600FE20505050500C
:101F200088A8A8887003030306000340A040FFFFB1
:101F3000FFFFFFFFFFFFFFFFFFFFFFFFFFFFFFFFB1
:101F4000FFFFFFFF0000000605FF01070706020074
:101F500080808080800080030303060105A0A0A08C
:101F600005060606000050F85050F850050909060D
:101F700000FF2070A8A07028A870200507070600A1
:101F800000C8C8102040989805070706000040A028
:101F9000A040A89068010303060205808080030921
:101FA000090601FF2040408080804040200309094D
:101FB0000601FF80404020202040408005070706A2
:101FC000000020A8702070A820050505060001204B
:101FD00020F820200203030601FFC0408005010114
:101FE000060003F8020202060100C0C0050707064A
:101FF0000000081010204040800507070600007010
:102000008898A8C8887003070706010040C04040B0
:102010004040E0050707060000708808102040F8DF
:10202000050707060000F808103008887005070744
:1020300006000010305090F8101005070706000049
:10204000F880F00808887005070706000030408017
:10205000F0888870050707060000F8081010202097
:1020600020050707060000708888708888700507BB
:1020700007060000708888780810600205050601D0
:1020800000C0C000C0C00206060601FFC0C000C0FC
:102090004080030505060101204080402005030320
:1020A000060002F800F80305050601018040204003
:1020B0008005070706000070881020200020050713
:1020C000070600007088B8A8B880700507070600EA
:1020D00000708888F8888888050707060000F0489F
:1020E00048704848F0050707060000708880808027
:1020F0008870050707060000F04848484848F00582
:102100000707060000F88080F08080F805070706C2
:102110000000F88080F080808005070706000070CE
:10212000888080988870050707060000888888F8EE
:10213000888888030707060100E04040404040E0EF
:1021400005070706000038101010109060050707FB
:102150000600008890A0C0A0908805070706000030
:10216000808080808080F805070706000088D8A856
:10217000888888880507070600008888C8A8988886
:10218000880507070600007088888888887005071A
:1021900007060000F08888F08080800507070600A9
:1021A0000070888888A89068050707060000F088F6
:1021B00088F0A090880507070600007088807008E6
:1021C0008870050707060000F82020202020200541
:1021D0000707060000888888888888700507070632
:1021E000000088888888505020050707060000886E
:1021F000888888A8A850050707060000888850200E
:102200005088880507070600008888502020202075
:10221000050707060000F80810204080F8030909A8
:102220000601FFE080808080808080E0050707064F
:102230000000804040201010080309090601FFE05B
:1022400020202020202020E0050303060005205048
:10225000880501010600FEF803030306010580401E
:102260002005050506000070087888780507070630
:1022700000008080F0888888F00505050600007061
:10228000808088700507070600000808788888881D
:10229000780505050600007088F0807005070706C0
:1022A0000000304840E04040400507070600FE704F
:1022B0008888887808700507070600008080F08805
:1022C0008888880307070601004000C0404040E0BE
:1022D0000409090601FE100030101010109060056E
:1022E000070706000080808890E0908803070706B3
:1022F0000100C04040404040E0050505060000D018
:10230000A8A8A8A8050505060000B0C88888880503
:10231000050506000070888888700507070600FE1E
:10232000F0888888F080800507070600FE78888896
:1023300088780808050505060000B0C8808080057B
:10234000050506000078807008F005070706000004
:102350002020F82020201805050506000088888820
:102360009868050505060000888888502005050541
:102370000600008888A8A8500505050600008850BA
:102380002050880507070600FE8888885020408076
:10239000050505060000F8102040F80309090601AC
:1023A000FF2040404080404040200109090602FFD4
:1023B0008080808080808080800309090601FF8002
:1023C000404040204040408005030306000248A8EA
:1023D00090FF434F4D4D554E49434154494F4E0098
:1023E00044525952554E004552524F525300494E95
:1023F000464F004543484F00535F58595A3A002012
:10240000453A00205A3A0020593A00583A0045729D
:10241000726F722077726974696E6720746F2045DD
:102420004550524F4D210A0053544F505045442EB1
:1024300020005072696E7465722073746F707065DD
:10244000642064756520746F206572726F72732EDC
:102450002046697820746865206572726F72206109
:102460006E6420757365204D39393920746F207280
:102470006573746172742E202854656D7065726185
:10248000747572652069732072657365742E2053AC
:102490006574206974206166746572207265737456
:1024A000617274696E67290A004E6F204368656324
:1024B0006B73756D2077697468206C696E65206E2A
:1024C000756D6265722C204C617374204C696E6569
:1024D0003A20004E6F20436865636B73756D2077FB
:1024E000697468206C696E65206E756D6265722C0A
:1024F000204C617374204C696E653A2000636865F6
:10250000636B73756D206D69736D617463682C20E6
:102510004C617374204C696E653A20004C696E659D
:10252000204E756D626572206973206E6F74204C49
:10253000617374204C696E65204E756D6265722BF7
:10254000312C204C617374204C696E653A20004D2B
:102550003131300053657269616C20737461747538
:1025600073206D69736D617463680A00534420724F
:10257000656164206572726F720A002121204B49E7
:102580004C4C2063617573656420627920746F6FB1
:10259000206D75636820696E616374697665207467
:1025A000696D65202D2063757272656E7420636F8E
:1025B0006D6D616E643A2000627573793A207061C6
:1025C0007573656420666F7220696E7075740A0099
:1025D000627573793A2070617573656420666F72F5
:1025E00020757365720A00627573793A2070726F94
:1025F00063657373696E670A004D3630300020667C
:10260000696C616D656E745F72756E6F75742000B4
:1026100066696C616D656E745F72756E6F7574203E
:10262000540046696C616D656E7452756E6F757499
:10263000205400506C6561736520526573657400A9
:102640005052494E5445522048414C54454400256F
:10265000533A20255300706F7765726F6666004BA2
:10266000494C4C45442E20005072696E74657220AE
:1026700068616C7465642E206B696C6C282920631A
:10268000616C6C6564210A006563686F3A0045728D
:10269000726F723A004F4646004F4E0042696C69B5
:1026A0006E656172204C6576656C696E6720477255
:1026B00069643A0A005072696E74696E67204F62ED
:1026C0006A656374002553202569002F2F616374A8
:1026D000696F6E3A0070726F6D70745F00656E6442
:1026E00000486F74656E6420746F6F20636F6C6454
:1026F0000A004732362043616E63656C65640047AB
:1027000032362048656174696E67204E6F7A7A6C44
:1027100065004732362048656174696E67204265FE
:10272000640057616974696E6720666F722068651E
:10273000617475702E0A004669786564204C656E78
:10274000677468205072696D6500446F6E65205033
:1027500072696D696E67004D616E75616C20707293
:10276000696D696E672E2E2E004C656176696E6705
:1027700020473236003F537065636966696564209F
:10278000582C5920636F6F7264696E617465206F95
:102790007574206F6620626F756E64732E0A003F39
:1027A00028522965706561742076616C7565206EAC
:1027B0006F7420706C61757369626C653B206D7518
:1027C0007374206265206174206C656173742031BC
:1027D0002E0A003F537065636966696564206E6FF9
:1027E0007A7A6C652074656D706572617475726556
:1027F000206E6F7420706C61757369626C652E0A4F
:10280000003F5370656369666965642066696C6141
:102810006D656E742073697A65206E6F7420706CBC
:1028200061757369626C652E0A003F537065636958
:1028300066696564207072696D65206C656E677489
:1028400068206E6F7420706C61757369626C652EA0
:102850000A003F537065636966696564206E6F7A2C
:102860007A6C652073697A65206E6F7420706C6174
:10287000757369626C652E0A003F526574726163FC
:1028800074696F6E204D756C7469706C6965722027
:102890006D75737420626520737065636966696520
:1028A000642E0A003F53706563696669656420524F
:1028B000657472616374696F6E204D756C746970B4
:1028C0006C696572206E6F7420706C6175736962DB
:1028D0006C652E0A003F5370656369666965642004
:1028E0006C6179657220686569676874206E6F74C1
:1028F00020706C61757369626C652E0A0043292E25
:102900000A003F53706563696669656420626564A7
:102910002074656D7065726174757265206E6F7478
:1029200020706C61757369626C65202834302D00ED
:10293000473236207374617274696E672E2E2E0AC8
:10294000004F46460A00466164652048656967682D
:10295000742000426564204C6576656C696E672062
:10296000004661696C656420746F20656E61626CFD
:102970006520426564204C6576656C696E670A0067
:10298000496E76616C6964206D6573682E0A00502B
:10299000726F62696E6720506F696E7400255320F4
:1029A00025692F2569002E0A002F0050726F626979
:1029B0006E67206D65736820706F696E74200020EB
:1029C0002844525952554E290047323920417574D6
:1029D0006F20426564204C6576656C696E67003FC8
:1029E00020284C2C522C462C4229206F7574206FC5
:1029F0006620626F756E64732E0A003F2856296543
:102A000072626F7365206C6576656C20696D706CA1
:102A100061757369626C652028302D34292E0A0097
:102A2000426164205A2076616C75650A004E6F2001
:102A300062696C696E65617220677269640A00413F
:102A4000636375726163792044656372656173695C
:102A50006E67210044656372656173696E6720412A
:102A6000636375726163792044657465637465643A
:102A70002E0A004732385A004163637572616379E8
:102A80003A2000206F6620004469642000473334F8
:102A90002061626F727465642E0A0041636375720F
:102AA0006163792041636869657665640054617289
:102AB000676574206163637572616379206163681F
:102AC00069657665642E0A00313A323D2573000A45
:102AD0005A322D5A313D0050726F62696E6720463E
:102AE00061696C65640050726F62696E672066612F
:102AF000696C65640A0047333420497465726174F7
:102B0000696F6E3A202569000A473334204974659D
:102B1000726174696F6E3A20003F2841296D706CB4
:102B2000696669636174696F6E206F7574206F6682
:102B300020626F756E64732028302E352D322E3052
:102B4000292E0A003F285429617267657420616349
:102B5000637572616379206F7574206F6620626F90
:102B6000756E64732028302E30312D312E30292E91
:102B70000A003F2849297465726174696F6E206F7D
:102B80007574206F6620626F756E64732028312D16
:102B90003330292E0A003F285929206F7574206F81
:102BA0006620626F756E64732E0A003F28582920D4
:102BB0006F7574206F6620626F756E64732E0A00E5
:102BC0003F2853292050726F62652D706F736974AE
:102BD000696F6E20696E64657820696E76616C69D4
:102BE000642E0A003F28532920697320726571758D
:102BF000697265642E0A004D3432322053004465F8
:102C000076696174696F6E0025533A20257300461A
:102C1000696E6973686564210A003A207A3A200077
:102C2000206F662000476F696E6720746F3A2058E6
:102C30000043570A00206469723A0020616E676C95
:102C4000653A005374617274207261646975733AF5
:102C5000004D343820506F696E740025533A20259A
:102C6000642F256400506F736974696F6E696E67B5
:102C7000207468652070726F62652E2E2E0A003FE8
:102C80004C656773206F66206D6F76656D656E7439
:102C900020696D706C61757369626C652028302DD8
:102CA0003135292E0A003F2028582C5929206F75CC
:102CB00074206F6620626F756E64732E0A00507206
:102CC0006F6265206F7574206F6620626F756E6429
:102CD00073003F53616D706C652073697A65206E77
:102CE0006F7420706C61757369626C652028342D77
:102CF0003530292E0A004D3438205A2D50726F621B
:102D000065205265706561746162696C69747920CF
:102D1000546573740A003F2856296572626F7365A3
:102D2000206C6576656C20696D706C617573696285
:102D30006C652028302D34292E0A005374616E648E
:102D400061726420446576696174696F6E3A20002F
:102D50002052616E67653A2000204D61783A20006C
:102D6000204D696E3A2000205369676D613A20005A
:102D70004D65616E3A20005741524E494E47212021
:102D80004C6F77205A204A65726B206D6179206CF8
:102D900065616420746F20756E77616E7465642060
:102DA0007061757365732E0A0020204D61783A209A
:102DB00000200020204D696E3A2000536F66742079
:102DC000656E6473746F70733A200070617573651B
:102DD0006400506175736500496E73657274206696
:102DE000696C616D656E7420616E642073656E64DC
:102DF000204D3130380A0052656865617420446F97
:102E00006E6500526568656174696E672E2E2E00CE
:102E10005265686561740048656174657220546923
:102E20006D656F75740053656E64204D31303820C8
:102E3000746F2068656174206E6F7A7A6C650A0021
:102E40004E6F7A7A6C65205061726B6564007265B2
:102E500073756D656400526573756D696E670020EA
:102E6000496E76616C696420657874727564657208
:102E7000200047322F473320626164207061726105
:102E80006D65746572730A00536C6565702E2E2E25
:102E9000005A2050726F6265205061737420426541
:102EA000640A005A2050726F62652050617374206A
:102EB000426564004732384C3000205A3A200020E6
:102EC000593A200042656420583A20004D657368E5
:102ED00020706F696E74206F7574206F6620726148
:102EE0006E67650A004D302053746F70004D3120BD
:102EF00053746F7000436C69636B20746F2052656C
:102F000073756D652E2E2E004E6F204D6F76652EDB
:102F100000456E642066696C65206C6973740A00F4
:102F2000426567696E2066696C65206C6973740A16
:102F3000004E6F206D656469610A00526573756D9E
:102F4000696E672053440070617573650052657344
:102F5000756D6500506175736520534400286E6F70
:102F60002066696C65290043757272656E7420660F
:102F7000696C653A20005344207072696E74696E02
:102F800067206279746520004E6F7420534420706E
:102F900072696E74696E670A002E0A0044656C657A
:102FA00074696F6E206661696C65642C2046696C7B
:102FB000653A200046696C652064656C65746564DB
:102FC0003A005072696E742074696D653A20000A87
:102FD00053746174733A2046696C616D656E742038
:102FE000757365643A20002C204C6F6E67657374AE
:102FF000206A6F623A2000546F74616C2074696DAE
:10300000653A200053746174733A20002C204661A5
:10301000696C65643A20002C2046696E69736865A6
:10302000643A20005072696E74733A2000537461E0
:1030300074733A20006F6B006F666600F323EE2313
:10304000E723E023D22344454255473A004D31312E
:10305000332053004D43332076312E31204F4646E6
:103060002E002F2F004D31343520533C696E64659E
:10307000783E206F7574206F662072616E676520E0
:1030800028302D31290A00205200416363656C65A8
:10309000726174696F6E3A2050004D32303620589C
:1030A0000046523A0020466C6F773A200050726F0B
:1030B0006265204F6666736574205A0050726F62B5
:1030C00065204F6666736574205A0020643A0020BC
:1030D000693A0020703A00496E76616C6964206537
:1030E000787472756465720A0020643A0020693A47
:1030F0000020703A0064697300656E0043290A007D
:1031000061626C656420286D696E2074656D702045
:1031100000436F6C64206578747275646573206118
:1031200072652000203B20486F73742068616E64D4
:103130006C696E67200046696C616D656E74207203
:10314000756E6F757420004D34323120696E636F77
:10315000727265637420706172616D65746572204E
:1031600075736167650A004D65736820706F696EDD
:1031700074206F7574206F662072616E67650A0037
:103180004F666673657473204170706C6965640086
:103190004572723A20546F6F206661722100546F3D
:1031A0006F206661722066726F6D2072656665724F
:1031B000656E636520706F696E740A0045455052F4
:1031C0004F4D204F4B0A002E0A002028302D313061
:1031D00029002076616C7565206F7574206F6620FC
:1031E00072616E676500416476616E6365204B3D78
:1031F000004D383400446F6E65207072696E7469DA
:103200006E672066696C650A004D3737004D3331B3
:10321000002100486F74656E6420746F6F20636FC7
:103220006C64004261636B0050726F63656564009B
:103230004F6666004F6E00536F667420456E647370
:10324000746F7073004D6F74696F6E0044697361C1
:10325000626C65205374657070657273004D38340C
:10326000004D34382050726F6265205465737400CD
:103270004732384F0A4D34382050313000426564AF
:10328000204C6576656C696E67004175746F205AD5
:103290002D416C69676E0047333400486F6D6520BF
:1032A0005A004732385A00486F6D6520590047323E
:1032B000385900486F6D6520580047323858004132
:1032C00075746F20486F6D65004D61696E004361D4
:1032D0006E63656C00446F6E65004D6F76652025EA
:1032E000736D6D004D6F766520302E316D6D004D24
:1032F0006F766520316D6D0050726F6265205A20C7
:103300004F6666736574005A3D004D6F7665204EBA
:103310006F7A7A6C6520746F20426564004D6F7619
:10332000696E6720746F2050726F62696E672050FB
:103330006F7300486F6D696E672058595A004732A5
:10334000380050726568656174202420426564000D
:1033500050726568656174202420456E6400546570
:103360006D706572617475726500436F6F6C646F28
:10337000776E005072656865617420240046616E46
:1033800020537065656400426564004E6F7A7A6C04
:1033900065004D61696E0050726F6265205A204F62
:1033A000666673657400416476616E6365204B00E8
:1033B000466C6F770046616E20537065656400420D
:1033C0006564004E6F7A7A6C6500537065656400C1
:1033D0004D61696E006F70656E00545249474745F4
:1033E000524544003A200066696C616D656E740058
:1033F0007A5F6D696E00795F6D617800785F6D69E5
:103400006E005265706F7274696E6720656E6473CA
:10341000746F70207374617475730A0020746F6F19
:10342000206C6F6E6720657874727573696F6E209B
:1034300070726576656E7465640A0020636F6C64F3
:1034400020657874727573696F6E20707265766529
:103450006E7465640A00486F6D65202573257325B9
:103460007320466972737400000030C10000BE42D0
:10347000000000005761726E696E673A20486F6DF8
:10348000696E672042756D702044697669736F724A
:10349000203C20310A000202040000C8420000BEA5
:1034A000420000E0420000A0400000A040000000F8
:1034B000400000C8420000BE420000E042000000A0
:1034C00000000000000000000053657474696E671E
:1034D000732053746F72656400290A002062797446
:1034E00065733B20637263200053657474696E6773
:1034F000732053746F72656420280048617264639E
:103500006F6465642044656661756C7420536574EE
:1035100074696E6773204C6F616465640A003B20B8
:10352000003A0A0020204D363033200020204D3450
:10353000313220530046696C616D656E742072757E
:103540006E6F75742073656E736F723A002055004C
:103550004C0046696C616D656E74206C6F61642F00
:10356000756E6C6F6164206C656E677468733A0089
:1035700020204D393030204B004C696E656172203F
:10358000416476616E63653A0020204D3835312004
:1035900058005A2D50726F6265204F6666736574CD
:1035A0000020440020490020204D333034205000BA
:1035B00020440020490020204D333031205000505D
:1035C00049442073657474696E67733A002046003D
:1035D00020420020480020204D3134352053004D3A
:1035E0006174657269616C206865617475702070C2
:1035F0006172616D65746572733A00204A00202023
:10360000473239205720490020204D343230205392
:10361000004175746F20426564204C6576656C6965
:103620006E673A0020204D323036205800486F6DCA
:1036300065206F66667365743A0020580020530059
:1036400020204D323035204200416476616E636542
:10365000643A20423C6D696E5F7365676D656E7498
:103660005F74696D655F75733E20533C6D696E5F75
:1036700066656564726174653E20543C6D696E5F79
:1036800074726176656C5F66656564726174653ECF
:1036900020583C6D61785F785F6A65726B3E205997
:1036A0003C6D61785F795F6A65726B3E205A3C6D54
:1036B00061785F7A5F6A65726B3E20453C6D617828
:1036C0005F655F6A65726B3E0020540020520020E7
:1036D000204D323034205000416363656C65726167
:1036E00074696F6E2028756E6974732F7332293A6E
:1036F00020503C7072696E745F616363656C3E203C
:10370000523C726574726163745F616363656C3EA1
:1037100020543C74726176656C5F616363656C3ED6
:103720000020204D3230312058004D6178696D7590
:103730006D20416363656C65726174696F6E2028EA
:10374000756E6974732F7332293A0020204D323020
:10375000332058004D6178696D756D20666565642C
:1037600072617465732028756E6974732F73293ABA
:103770000053746570732070657220756E69743AB9
:103780000020440020204D32303020530020446976
:103790007361626C65640A0046696C616D656E7484
:1037A0002073657474696E67733A0020204D31345C
:1037B000392043203B20556E69747320696E204385
:1037C000656C736975730A0020286D6D29002020CF
:1037D000473231202020203B20556E6974732069C8
:1037E0006E206D6D00454550524F4D2064617461EF
:1037F00073697A65206572726F722E0A00290A0059
:103800002062797465733B206372632000207374B7
:103810006F7265642073657474696E677320726576
:1038200074726965766564202800202863616C6382
:10383000756C6174656429210A0020213D200045D2
:103840004550524F4D20435243206D69736D617452
:103850006368202D202873746F726564292000200E
:1038600053697A653A2000496E6465783A20000011
:1038700000FA430000FA43000070410000A042003B
:1038800000A0420000A04200004844CD4C1743B8BD
:103890000B0000B80B000064000000401F00002077
:1038A0004D61726C696E3D563833290A00454550AA
:1038B000524F4D2076657273696F6E206D69736D1E
:1038C000617463682028454550524F4D3D0024F4F3
:1038D000D43050C38E20C2A24017828B7011127A4E
:1038E000910D816CD90AA861E108C758660761513A
:1038F00043061E4B5D05C145A7041A411104093D4D
:103900009803713931034036DB0265339102D430BC
:103910005402802E1D02632CEE01752AC501B028C9
:10392000A001102781018F2564012B244B01E02287
:103930003401AC211F018D200D01801FFC00841E6D
:10394000ED00971DDF00B81CD200E61BC600201B4F
:10395000BC00641AB200B219A8000A19A0006A18C3
:103960009900D117910040178B00B51684003116CD
:103970007E00B31579003A157300C7146F00581410
:103980006A00EE1366008813630025135E00C712F9
:103990005B006C12570015125400C11151007011D8
:1039A0004F0021114B00D61049008D1047004610E2
:1039B000440002104200C00F4000800F3E00420F42
:1039C0003C00060F3B00CB0E3800930E37005C0E18
:1039D0003500270E3400F30D3200C10D3100900D7B
:1039E0003000600D2E00320D2D00050D2C00D90C7D
:1039F0002B00AE0C2900850C29005C0C2700350C2F
:103A000027000E0C2600E80B2400C40B2400A00B9A
:103A100023007D0B23005A0B2100390B2100180BCA
:103A20002000F80A1F00D90A1E00BB0A1E009D0ACA
:103A30001D00800A1D00630A1C00470A1B002C0A97
:103A40001B00110A1A00F7091A00DD091900C40940
:103A50001900AB091900920917007B0918006309C6
:103A600017004C09160036091600200916000A092D
:103A70001500F5081500E0081400CC081400B8087B
:103A80001400A4081400900813007D0812006B08AD
:103A900013005808120046081200340811002308C9
:103AA00011001208110001081100F0071000E007D2
:103AB0001000D0071000C0071000B0070F00A107CA
:103AC000100091070E0083070F0074070F006507B1
:103AD0000E0057070E0049070E003B070D002E078A
:103AE0000E0020070D0013070D0006070D00F90654
:103AF0000C00ED060D00E0060C00D4060C00C80614
:103B00000C00BC060C00B0060C00A4060B009906C5
:103B10000C008D060B0082060B0077060B006C066E
:103B20000B0061060A0057060B004C060A0042060D
:103B30000A0038060A002E060A0024060A001A06A1
:103B40000A001006090007060A00FD050900F40531
:103B50000900EB050900E2050900D9050900D005B7
:103B60000900C7050900BE050900B5050800AD0537
:103B70000800A50509009C050800940508008C05AF
:103B80000800840508007C050800740508006C0521
:103B90000700650508005D050700560508004E058D
:103BA00007004705070040050800380507003105F4
:103BB00007002A050700230507001C050600160557
:103BC00007000F0507000805060002050700FB04B3
:103BD0000600F5040700EE040600E8040600E2040F
:103BE0000700DB040600D5040600CF040600C90464
:103BF0000600C3040600BD040600B7040600B104B5
:103C00000500AC040600A6040600A00405009B0401
:103C1000060095040500900406008A04050085044A
:103C20000500800406007A04050075040500700490
:103C300005006B04050066040500610405005C04D2
:103C4000050057040500520405004D040500480412
:103C50000500430405003E0404003A040500350451
:103C60000500300404002C0405002704040023048C
:103C700005001E0404001A040400160405001104C3
:103C800004000D04040009040500040404000004F9
:103C90000400FC030400F8030400F4030400F00330
:103CA0000400EC030400E8030400E4030400E00360
:103CB0000400DC030400D8030400D4030400D00390
:103CC0000400CC030400C8030300C503030024F46C
:103CD00004D9201BC40C5C0E9804C4095F0265075C
:103CE0007101F405F900FB04B30048048700C10327
:103CF00069005803550003034500BE023A008402E0
:103D0000310053022A002902250004022000E401A8
:103D10001C00C8011900AF011700980114008401AC
:103D20001300710110006101100051010E004301E8
:103D30000D0036010B002B010B0020010B001501BB
:103D400009000C01090003010800FB000800F30052
:103D50000800EB000700E4000600DE000600D800C3
:103D60000600D2000600CC000500C7000500C20016
:103D70000500BD000400B9000400B5000400B10056
:103D80000400AD000400A9000400A5000300A20087
:103D900003009F0004009B000300980003009500AF
:103DA000020093000300900003008D0002008B00CE
:103DB00003008800020086000200840003008100E6
:103DC00002007F0002007D0002007B0002007900FB
:103DD0000200770001007600020074000200720009
:103DE0000100710002006F0002006D0001006C0014
:103DF00002006A000100690002006700010066001D
:103E00000100650001006400020062000100610021
:103E10000100600001005F0002005D0001005C0025
:103E200001005B0001005A00010059000100580028
:103E30000100570001005600010055000100540028
:103E40000100530000005300010052000100510026
:103E50000100500001004F0001004E0000004E0024
:103E600001004D0001004C0001004B0000004B0020
:103E700001004A000100490001004800000048001C
:103E80000100470001004600000046000100450017
:103E90000000450001004400010043000000430011
:103EA000010042000000420001004100000041000A
:103EB0000100400001003F0000003F0001003E0003
:103EC00000003E0001003D0000003D0001003C00FC
:103ED00000003C0000003C0001003B0000003B00F3
:103EE00001003A0000003A000100390000003900EA
:103EF00001003800000038000000380001003700E1
:103F000000003700010036000000360000003600D7
:103F100001003500000035000000350001003400CC
:103F200000003400000034000100330000003300C2
:103F300000003300010032000000320000003200B7
:103F400001003100000031000000310001003000AC
:103F5000000030000000300001002F0000002F00A2
:103F600000002F0000002F0001002E0000002E0096
:103F700000002E0001002D0000002D0000002D008B
:103F800000002D0001002C0000002C0000002C007F
:103F900000002C0001002B0000002B0000002B0073
:103FA00000002B0001002A0000002A0000002A0067
:103FB00000002A000100290000002900000029005B
:103FC000000029000000290001002800000028004E
:103FD0000000280000002800000028000100270041
:103FE0000000270000002700000027000000270035
:103FF0000100260000002600000026000000260028
:10400000000026000100250000002500000025001A
:10401000000025000000250000002500010024000C
:104020000000240000002400000024000000240000
:1040300001002300000023000000230000002300F3
:1040400000002300000023000000230001002200E4
:1040500000002200000022000000220000002200D8
:1040600000002200010021000000210000002100CA
:1040700000002100000021000000210000002100BC
:1040800001002000000020000000200000002000AF
:1040900000002000000020000000200000002000A0
:1040A00001001F0000001F0000001F0000001F0093
:1040B00000001F0000001F0000001F0001001E0084
:1040C00000001E0000001E0000001E000000C231A3
:1040D00000001C260000F4190000D80F0000EB08B7
:1040E0000000C004000075020000400100002043F1
:1040F0006F756E7420583A000042656400453100C7
:10410000626564002C2073797374656D2073746F1D
:104110007070656421204865617465725F49443A36
:10412000200048656174696E67204661696C65644A
:104130000048656174696E67206661696C6564003A
:104140004D3131322053687574646F776E0045725B
:10415000723A204D415854454D50004D41585445F8
:104160004D502074726967676572656400457272AC
:104170003A204D494E54454D50004D494E54454D01
:1041800050207472696767657265640054484552CF
:104190004D414C2052554E4157415900546865726B
:1041A0006D616C2052756E6177617900202F00205F
:1041B00042403A0020403A0020573A0020573A0047
:1041C000496E76616C696420657874727564657295
:1041D0000A007C3C3E5E2B3D3F2F5B5D3B2C2A2240
:1041E0005C0043616E6E6F74206F70656E20737536
:1041F00062646972200053442063617264206F6BB3
:104200000A006F70656E526F6F74206661696C652D
:10421000640A00766F6C756D652E696E6974206630
:1042200061696C65640A004E6F20534420636172BB
:10423000640A000A4D3234004D3233202573002EBB
:104240000A006F70656E206661696C65642C20469B
:10425000696C653A200046696C652073656C65631E
:104260007465640A002053697A653A200046696CD7
:1042700065206F70656E65643A2000454E4420539A
:104280005542524F5554494E450A002220706F73D3
:10429000002220706172656E743A220053554252BA
:1042A0004F5554494E452043414C4C207461726730
:1042B00065743A220053756263616C6C204F7665B9
:1042C00072666C6F77004578636565646564206D20
:1042D000617820535542524F5554494E45206465EC
:1042E0007074683A0057726974696E6720746F2041
:1042F00066696C653A2000414253005045544700BE
:10430000504C4100667265736800646F696E6700A7
:104310002066696C653A20004E6F7720002F61752A
:10432000746F25632E6700FFE0FFD1AFFF32FFD02F
:10433000FFFEFFE0FFD1AEFFD0FFFEFFE0FFD11098
:1043400000FFFEFFD0FFE0FFC1FFD1AED580A83F48
:10435000D300408D142002A1C8DA1281CFD9F1DB3D
:10436000402EA4A6AFFFD0FFFE1000AA03F0013A32
:10437000019002220130031001D00302017004F702
:10438000001005ED00B005E5005006DD00F006D791
:10439000009007D1003008CC00D008C7007009C3D6
:1043A00000100ABE00B00ABB00500BB700F00BB300
:1043B00000900CB000D00DAA00100FA5005010A066
:1043C0000090119B00D0129600B014900090168BB4
:1043D0000070188500501A8000301C7B00B01E75DC
:1043E0000030216F00B02369003026640010285F80
:1043F00000902A5A00702C5500F02E4F0070314862
:1044000000B0324500F033410070363900103737C4
:10441000005038330090392D00D03A2700B03C1CB2
:1044200000503D1700F03D1100903E0900D03FE5DF
:10443000FF2020506C616E6E657242756666657213
:1044400042797465733A20002046726565204D6597
:104450006D6F72793A2000436F6D70696C65643AD4
:10446000204D617920203420323032320A00204C35
:1044700061737420557064617465643A203230321F
:10448000312D30362D3237207C20417574686F72A3
:104490003A20284A47465457290A00322E302E39EE
:1044A0002E310A004D61726C696E0020536F667484
:1044B000776172652052657365740A0020576174D4
:1044C0006368646F672052657365740A00204272E6
:1044D0006F776E206F75742052657365740A0020C3
:1044E00045787465726E616C2052657365740A005C
:1044F000506F77657255700A0073746172740A00A8
:104500004732385859004D31303031006F6B0065FB
:1045100072726F722077726974696E6720746F208F
:1045200066696C650A00446F6E6520736176696E1A
:10453000672066696C652E0A004D323900456E644D
:1045400073746F7073002553202563202563202525
:104550006320256300205A3A0020593A0020583A37
:1045600000656E6473746F7073206869743A20001C
:1045700000000A0B02090C0D0E08070304010000DD
:10458000000000000000000000000000000000002B
:1045900000000000000000000000000012111000E8
:1045A000000000000000000000000000000000000B
:1045B000000000000000004D6F76652025736D6DD2
:1045C000004D6F766520302E316D6D004D6F766534
:1045D00020316D6D004D6F76652031306D6D004D71
:1045E0006F766520417869730045787472756465EB
:1045F00072004D6F7665205A004D6F766520590028
:104600004D6F76652058000043FB42F742436861D6
:104610006E67652046696C616D656E7400556E6CE1
:104620006F61642046696C616D656E74004C6F61EA
:10463000642046696C616D656E74005072656865D2
:10464000617420437573746F6D00507265686561A5
:10465000742024004261636B005072696E7420669E
:10466000726F6D204D6564696100486F6D696E679A
:10467000204661696C656400FF01FF50726F6269DA
:104680006E67204661696C65640A0050726F6269EA
:104690006E67204661696C656400205A3A200020EC
:1046A000593A200042656420583A200073686F77B9
:1046B00000627574746F6E00626567696E004469AC
:1046C0007361626C6552756E6F75740050757267B8
:1046D000654D6F72650050617573656400436F6E60
:1046E00074696E7565004C6F61642046696C616D1C
:1046F000656E74205400496E736572742066696C2F
:10470000616D656E7420616E642073656E64204D0A
:104710003130380A00220A00556E6B6E6F776E20BA
:10472000636F6D6D616E643A2022004D43332076D5
:10473000312E312052656164792E005072696E7499
:10474000696E672E2E2E005072696E74205061754E
:1047500073656400204500205A00205900204D391F
:104760003220580020453A00205A3A0020593A0099
:10477000583A0020746F6F206C6F6E6720657874F4
:10478000727573696F6E2070726576656E7465649C
:104790000A0020636F6C6420657874727573696FAA
:1047A0006E2070726576656E7465640A006F6B0AC0
:1047B00000526573656E643A20006E6F74696669B5
:1047C000636174696F6E20000000220025002800DC
:1047D0002B002E0031003400020100000501080109
:1047E0000B0100002100240027002A002D003000CA
:1047F000330001010000040107010A010505050558
:10480000070508080808020202020A0A0808040448
:104810000404010101010101010103030303030376
:104820000303040707070C0C0C0C0C0C0C0C020205
:10483000020206060606060606060B0B0B0B0B0B02
:104840000B0B01021020200808102040102040808F
:104850000201020108040201010204081020408044
:1048600080402010080402018004020180402010D2
:10487000080402010804020101020408102040801B
:104880000102040810204080BA00C40011241FBE99
:10489000CFEFD1E2DEBFCDBF00E00CBF13E0A0E060
:1048A000B2E0EAEEFFEC02E00BBF02C007900D920F
:1048B000A03AB107D9F726E1A0EAB3E001C01D9202
:1048C000AA3BB207E1F714E2C5E4D4E200E006C077
:1048D00021970109802FFE010F949764C434D107FA
:1048E00080E00807A9F70F943F520D94E4670C94F9
:1048F000000080912E168823C1F0815080932E16DF
:10490000EFE7F4E1882351F08150990B2BE1289FC8
:10491000F001299FF00D1124E05EFA4E8BE1A4E630
:10492000B4E101900D928A95E1F720912E162111A4
:1049300005C08091391680648093391681E090E03B
:10494000A0E0B0E0211103C080E090E0DC018093A2
:10495000BC089093BD08A093BE08B093BF08109206
:10496000B20881E08093CC0883E08093960208959A
:10497000CF93DF93EC01CB01BA010F94D65D29EC04
:1049800038EC48EC5EE30F947C6520E030E040E0DA
:104990005FE30F94A0640F94E9656883DF91CF9182
:1049A0000895E091D50886E0E802F0011124E0586E
:1049B000F74F8091B50890E09583848308958F9296
:1049C0009F92AF92BF92CF92DF92EF92FF92CF93DE
:1049D0006B017C0120E030E0A9010F94D05D87FDE0
:1049E00093C06DEB77E386E095E3A70196010F9402
:1049F000A0646B017C0120E030E040E251E40F94C0
:104A0000355E20E030E04AE754E40F94355E4B0118
:104A10005C0120E030E0A901C701B6010F94D05D30
:104A200020E030E040EA50E487FF04C020E030E0BE
:104A300040EA50ECC501B4010F94A06420E030E0DE
:104A400040E251E40F947C650F94E4656B017C01B6
:104A5000C114D104E104F10409F45BC0F7FE59C0AC
:104A6000F094E094D094C094C11CD11CE11CF11CC2
:104A70008DE28093FC05C701B60128EE33E040E0EB
:104A800050E00F941C648AE0882E912CA12CB12C4C
:104A9000CA01B901A50194010F941C64605D609383
:104AA000FD058EE28093FE05C701B60124E630E0E5
:104AB00040E050E00F941C64CA01B901A5019401C3
:104AC0000F941C64605D6093FF05C701B601A501EA
:104AD00094010F941C64C62FCA01B901A501940169
:104AE0000F941C64605D60930006C05DC093010676
:104AF0008CEF95E0CF91FF90EF90DF90CF90BF903B
:104B0000AF909F908F9008956DEB77E386E095EBE3
:104B10006CCF80E2AECFCF93DF93EC01CB01BA0133
:104B20000F94D65D0F94E9656883DF91CF91089566
:104B30008F929F92AF92BF92CF92DF92EF92FF92AD
:104B4000CF936B017C0120E030E0A9010F94D05D90
:104B500087FD9FC06DEB77E386E095E3A7019601A3
:104B60000F94A0646B017C0120E030E040E251E44E
:104B70000F94355E20E030E048EC52E40F94355E4F
:104B80004B015C0120E030E0A901C701B6010F94A0
:104B9000D05D20E030E040EA50E487FF04C020E030
:104BA00030E040EA50ECC501B4010F94A06420E06D
:104BB00030E040E251E40F947C650F94E4656B01B2
:104BC0007C018BE2F7FE09C0F094E094D094C0948D
:104BD000C11CD11CE11CF11C8DE28093FB05C701B7
:104BE000B60120E137E240E050E00F941C648AE017
:104BF000882E912CA12CB12CCA01B901A5019401D8
:104C00000F941C64605D6093FC05C701B60128EE3B
:104C100033E040E050E00F941C64CA01B901A501E3
:104C200094010F941C64605D6093FD05C701B6019B
:104C300024E630E040E050E00F941C64CA01B90162
:104C4000A50194010F941C64605D6093FE058EE2E3
:104C50008093FF05C701B601A50194010F941C6460
:104C6000C62FCA01B901A50194010F941C64605DAF
:104C700060930006C05DC09301068BEF95E0CF9175
:104C8000FF90EF90DF90CF90BF90AF909F908F906C
:104C900008956DEB77E386E095EB60CF8F929F925E
:104CA000AF92BF92CF92DF92EF92FF926B017C01A5
:104CB00020E030E0A9010F94D05D87FD6BC06DEB63
:104CC00077E386E095E3A70196010F94A0646B015A
:104CD0007C0120E030E040E251E40F94355E20E0BA
:104CE00030E040E251E40F94355E4B015C0120E07E
:104CF00030E0A901C701B6010F94D05D20E030E09B
:104D000040EA50E487FF04C020E030E040EA50EC85
:104D1000C501B4010F94A06420E030E040E251E40A
:104D20000F947C650F94E4659B018BE237FF05C00F
:104D300022273327261B370B8DE28093FD05C901FF
:104D400064E670E00F948464CB01EAE0F0E0BF0118
:104D50000F948464805D8093FE05C901BF010F94A8
:104D60008464282FCB01BF010F948464805D8093FD
:104D7000FF058EE280930006205D209301068DEFF3
:104D800095E0FF90EF90DF90CF90BF90AF909F9015
:104D90008F9008956DEB77E386E095EB94CF8F923B
:104DA0009F92AF92BF92CF92DF92EF92FF92CF93FA
:104DB0006B017C0120E030E0A9010F94D05D87FDFC
:104DC000AAC06DEB77E386E095E3A70196010F9407
:104DD000A0646B017C0120E030E0A9010F94D05D5C
:104DE00087FF9EC0C701B601905820E030E040E246
:104DF00051E40F94355E20E030E040E251E40F943E
:104E0000355E20E030E040EA50E40F94A06420E0FA
:104E100030E040E251E40F947C650F94E4656B014F
:104E20007C0180E28093FB0560E280E1C81687E2A6
:104E3000D806E104F1048CF0C701B60120E137E2A5
:104E400040E050E00F941C64CA01B9012AE030E050
:104E500040E050E00F941C64605D6093FC0560E2EC
:104E600088EEC81683E0D806E104F1048CF0C7018F
:104E7000B60128EE33E040E050E00F941C64CA0114
:104E8000B9012AE030E040E050E00F941C64605D1E
:104E90006093FD0560E284E6C816D104E104F104E4
:104EA0008CF0C701B60124E630E040E050E00F94FA
:104EB0001C64CA01B9012AE030E040E050E00F94E0
:104EC0001C64605D6093FE058AE0882E912CA12C05
:104ED000B12CC701B601A50194010F941C64C62F23
:104EE000CA01B901A50194010F941C64605D60932F
:104EF000FF058EE280930006C05DC09301068BEF34
:104F000095E0CF91FF90EF90DF90CF90BF90AF9062
:104F10009F908F9008956DEB77E386E095EB55CFEA
:104F200020E030E040E251E4C701B60162CFCF9308
:104F3000DF93EC01CB01BA010F94D65D20E030E0A5
:104F400040E251E40F947C65688379838A839B8374
:104F5000DF91CF910895CF93DF93EC01CB01BA019C
:104F60000F94D65D20E030E040E251E40F947C6580
:104F7000688379838A839B83DF91CF9108950F940F
:104F8000D65D20E030E040E251E40F947C6507CF2D
:104F9000CF93DF93EC01CB01BA010F94D65D20E0F3
:104FA00030E040E251E40F947C65688379838A8322
:104FB0009B83DF91CF9108950F94D65D20E030E080
:104FC00040E251E40F947C6569CECF93DF93EC010E
:104FD000CB01BA010F94D65D688379838A839B8362
:104FE000DF91CF910895CF93DF93EC01CB01BA010C
:104FF0000F94D65D688379838A839B83DF91CF91F9
:105000000895CF93DF93EC01CB01BA010F94D65DE5
:105010002AE037ED43E25DE30F947C650F94E96588
:10502000688379838A839B83DF91CF910895CF939F
:10503000DF93EC01CB01BA010F94D65D2AE037ED86
:1050400043E25DE30F947C65688379838A839B8365
:10505000DF91CF910895CF93DF93EC01CB01BA019B
:105060000F94D65D688379838A839B83DF91CF9188
:105070000895CF93DF93EC01CB01BA010F94D65D75
:1050800020E030E048EC52E40F947C65688379833B
:105090008A839B83DF91CF910895CF93DF93EC01B7
:1050A000CB01BA010F94D65D20E030E048EC52E429
:1050B0000F947C65688379838A839B83DF91CF918A
:1050C00008950F94D65D20E030E048EC52E40F9450
:1050D0007C652ECDCF93DF93EC01CB01BA010F9409
:1050E000D65D0F94E46579836883DF91CF9108954D
:1050F000CF93DF93EC01CB01BA010F94D65D20E092
:1051000030E04AE754E40F947C65688379838A83AE
:105110009B83DF91CF9108950F94D65D20E030E01E
:105120004AE754E40F947C654ACC2CEA35EC47E21C
:105130005EE36091530570915405809155059091FF
:1051400056050F947C656093AC087093AD0880930E
:10515000AE089093AF0808952CEA35EC47E25EE381
:1051600060915705709158058091590590915A05A5
:105170000F94355E6093A8087093A9088093AA08DD
:105180009093AB0808952CEA35EC47E25EE360911A
:1051900053057091540580915505909156050F94D3
:1051A0007C656093AC087093AD088093AE089093D3
:1051B000AF0808952CEA35EC47E25EE360915705AD
:1051C000709158058091590590915A050F94355E5C
:1051D0006093A8087093A9088093AA089093AB08DD
:1051E0000895FC0184910895FC0180810895FC01DB
:1051F000A081B1811C92A281B3818C918F5F8C932D
:105200000280F381E02D90818CE0989F800D112425
:10521000E1EEF4E113AE84AF089590E080E00895EC
:1052200090E080E00895CF92DF92EF92FF92CF93CB
:10523000DF9300D01F92CDB7DEB76B017C0120E079
:1052400030E0A9010F94D05D87FD1BC06DEB77E3C3
:1052500086E095E3A70196010F94A06469837A83A1
:105260008B839C83CE0101960F9405060F900F90BF
:105270000F900F90DF91CF91FF90EF90DF90CF9044
:1052800008956DEB77E386E095EBE4CF0F94D65D60
:1052900020E030E040E251E40F947C65C4CF80917F
:1052A000BD149091BE14891B8F7011F40C94A288C8
:1052B00081E008952F923F924F925F927F928F925A
:1052C0009F92AF92BF92CF92DF92EF92FF920F9395
:1052D0001F93CF93DF93D62EC72E742EFC018080B0
:1052E0009180A280B380C501B40120E13EE040E09E
:1052F00050E00F94FA63122F032FC22FD32F8CE3A9
:10530000282E312C412C512CC501B401A201910150
:105310000F94FA63CA01B901A20191010F94FA63D3
:10532000F62EE72E772051F1C501B40120E831E5D2
:1053300041E050E00F94FA638901EF92FF92CE01B1
:1053400068E170E00F9470649F938F933F932F9365
:105350008EE598E09F938F93CF92DF920F94695DD3
:10536000EDB7FEB73A960FB6F894FEBF0FBEEDBF8D
:1053700088E00A301105D0F089E018C0C436D105A4
:1053800038F57F936F930F931F9382E598E09F9377
:105390008F93CF92DF920F94695D8DB79EB7089679
:1053A0000FB6F8949EBF0FBE8DBF85E0DF91CF9101
:1053B0001F910F91FF90EF90DF90CF90BF90AF9033
:1053C0009F908F907F905F904F903F902F90089587
:1053D0007F936F930F931F9388E498E09F938F932D
:1053E000CF92DF920F94695DEDB7FEB738960FB696
:1053F000F894FEBF0FBEEDBF86E0D8CFCF92DF920C
:10540000EF92FF926B017C0120E030E0A9010F9444
:10541000D05D87FD26C06DEB77E386E095E3A701BD
:1054200096010F94A0646B017C0120E030E0A9019B
:105430000F94D05D20E030E040E05FE387FF04C0E0
:1054400020E030E040E05FEBC701B6010F94A064BC
:105450000F94E465CB01FF90EF90DF90CF900D9417
:105460009F076DEB77E386E095EBD9CF0F94D65D80
:10547000C5CF0F94D65D0F94E465CB010D949F07C3
:1054800084E00D94DD4383E00D94DD4382E00D94D0
:10549000DD430F94D65D29EC38EC48EC5EE30F94C5
:1054A0007C6520E030E040E05FE30F94A0640F945F
:1054B000E965862F0D94F6070D94CF000D94DB1E41
:1054C0000C9400E20F94D65D0F94E965862F0D943D
:1054D000D4079091290681E089270C94998661E090
:1054E00085EB98E00C9424878EEF0E94DDF70C94F6
:1054F0004CF8CF93DF9300D01F92CDB7DEB70F9457
:10550000E9650F94D45D69837A838B839C83CE0194
:1055100001960F9482050F900F900F900F90DF91DE
:10552000CF9108950F94D65D2AE037ED43E25DE315
:105530000F947C65DECFCF92DF92EF92FF92CF93F4
:10554000DF9300D01F92CDB7DEB76B017C0120E066
:1055500030E0A9010F94D05D87FD1BC06DEB77E3B0
:1055600086E095E3A70196010F94A06469837A838E
:105570008B839C83CE0101960F9482050F900F9030
:105580000F900F90DF91CF91FF90EF90DF90CF9031
:1055900008956DEB77E386E095EBE4CF0F94D65D4D
:1055A0002AE037ED43E25DE30F947C65C4CF0F94AE
:1055B000D65DC1CFCF92DF92EF92FF926B017C015B
:1055C00020E030E0A9010F94D05D87FD26C06DEB8F
:1055D00077E386E095E3A70196010F94A0646B0141
:1055E0007C0120E030E0A9010F94D05D20E030E0A4
:1055F00040E05FE387FF04C020E030E040E05FEB85
:10560000C701B6010F94A0640F94E465CB01FF902D
:10561000EF90DF90CF900D94F5066DEB77E386E089
:1056200095EBD9CF0F94D65DC5CF0F94D65D20E012
:1056300030E048EC52E40F947C650D94DC080C9447
:10564000E7E50C94E7E50C94E7E50C94E7E50C94AA
:1056500099E50C9499E50C9499E50C9499E5CF9211
:10566000DF92EF92FF920F931F930F9424460091C5
:10567000D2041091D3042091D4043091D5046B014D
:105680007C01C01AD10AE20AF30A9701860137FDAC
:1056900011C02091D10420952093D1046A547C4FED
:1056A0008F4F9F4F6093D2047093D3048093D404A0
:1056B0009093D50481E09091D104911101C080E0D4
:1056C0001F910F91FF90EF90DF90CF9008950F946E
:1056D000CF390E94BB88882351F08091391682FD12
:1056E00006C08BEB99E0909327088093260861E031
:1056F00084EB99E00E94BA8A0D9437050F931F93AB
:10570000CF938C01C62F83E193E00E94A489C80146
:105710000E94A4898AE30E94538980E38C0F0E942F
:1057200053898AE0CF911F910F910C945389EF9286
:10573000FF920F931F93CF93DF93EC018B017A01BC
:105740008A859B858617970731F0888199810F9408
:105750002F4D1B870A87B701888199810F94474095
:105760002E813F81820F932F911D9F838E8390E026
:1057700080E0DF91CF911F910F91FF90EF900895FE
:105780009F92AF92BF92CF92DF92EF92FF920F93D0
:105790001F93CF93DF93EC018B01942EA52E8A8566
:1057A0009B858617970731F0888199810F942F4D3B
:1057B0001B870A8788859985019649F5BC800A81EF
:1057C0008E81080FC880D980D6015596ED91FC9145
:1057D000C6011995B80EE92CFA2C10E0F7012191B9
:1057E0007F01211127C08E819F81810F911D9F8391
:1057F0008E8390E080E0DF91CF911F910F91FF9019
:10580000EF90DF90CF90BF90AF909F9008950E8162
:105810001F81692D7A2D888199810F944740800FCF
:10582000912F911D288539852817390738F681E091
:1058300090E0E1CF4B2D602FC6010F94874D080FEC
:10584000180FCCCFDF92EF92FF920F931F93CF935D
:10585000DF93EC01D62E1CAD0BAD7C0184E0E80E8D
:10586000F11CE98DFA8DC7011995412F480F2D2D97
:10587000602FC7010F94874D9BAD890F8BAF81E0DF
:1058800090E0DF91CF911F910F91FF90EF90DF900B
:105890000895CF92DF92EF92FF920F931F93CF93D1
:1058A000DF93CDB7DEB72C970FB6F894DEBF0FBEEF
:1058B000CDBFF0901C15E0901D152091CF04211153
:1058C0001DC048E058E06E2D8F2D0F94F24D90E0F2
:1058D00080E0F80EF0921C15E0921D1599272C9689
:1058E0000FB6F894DEBF0FBECDBFDF91CF911F91F1
:1058F0000F91FF90EF90DF90CF900895C090E91442
:10590000D090EA1425EE34E13A8329832F2D30E03C
:105910003C832B832E2D30E03E832D8318861F82FF
:105920007A8769871C861B8600EC1BE29E012F5F2D
:105930003F4F41EF58E2BC01C6010F946C33B601F2
:1059400085EE94E10F942F4D8F819885C2CFEF9211
:10595000FF920F931F93CF93DF9300D000D000D01E
:105960001F921F92CDB7DEB77C012091B308422F62
:10597000022E000C550B8091B408833099F18430CD
:1059800051F18EE29EE05F932F939F938F938E0150
:105990000F5F1F4F1F930F930F94695DC7010F9403
:1059A00008124FE350E0B80188E298E00F94CA670C
:1059B0000F900F900F900F900F900F902B960FB6A7
:1059C000F894DEBF0FBECDBFDF91CF911F910F9135
:1059D000FF90EF9008958AE39EE027FDD4CF85E203
:1059E0009EE0D1CF83E49EE0CECF8091A10890913C
:1059F000A208ADCFE091D50886E0E802F0011124BD
:105A0000E058F74F80819181A2CF809120068111CB
:105A10000EC020913E0230913F022150310981E0B9
:105A20004091A1085091A208421753070CF080E062
:105A30000895CF93DF93CDB7DEB720E2488559852F
:105A40006F818E810F948A3FDF91CF910895282F27
:105A50001092D1088091BC089091BD08A091BE0819
:105A6000B091BF08B7FF08C01092BC081092BD08E3
:105A70001092BE081092BF0880916105882331F012
:105A80008091BC088093B1081092CC08809198084E
:105A90001816FCF4082E000C990B821B910920911A
:105AA000B108022E000C330B2817390794F097FF2A
:105AB00002C090E080E08093B108092E000CAA0B90
:105AC000BB0B8093BC089093BD08A093BE08B09315
:105AD000BF088091B1086623A9F09091B208891798
