:100000000C946F240C94A0240C94A0240C94A02491
:100010000C94A0240C94A0240C94A0240C94A02450
:100020000C94A0240C94A0240C94A0240C94A02440
:100030000C94A0240C94A0240C94A0240C94A02430
:100040000C94A0240D9406240C94A0240C94A024B9
:100050000C94A0240C94A0240C949CA50D94494BC2
:100060000C94A0240C945D420C9428420C94A0247F
:100070000C94A0240C94A0240C94A0240C94A024F0
:100080000C94A0240C94A0240C94A0240C94A024E0
:100090000C94A0240C94A0240C94A0240C94A024D0
:1000A0000C94A0240C94A0240C94A0240C94A024C0
:1000B0000C94A0240C94A0240C94A0240C94A024B0
:1000C0000C94A0240C94A0240C94A0240C94A024A0
:1000D0000C94A0240C94A0240C94A0240C94A02490
:1000E0000C94A0248E3E933E983EA23EAC3E253F0B
:1000F000B63EBE3EC63ED03EDA3EE43EF33EFD3E58
:10010000253F073F113F1B3F9442A942F54206435A
:100110000E4341431243414316431A4341431E4396
:10012000224326432F434143CA42CF42D442414354
:10013000D942DE42E3424143E842ED42F1424143CB
:100140003A43E86ECB6ECE6EEB6ED16ED46ED76E48
:10015000E36EDA6EF66EDD6EE06E0D01ED00FD0011
:100160000101E500090107010B010F011701F10071
:10017000F900130103010901E700EF001101084A2A
:10018000D73B3BCE016E84BCBFFDC12F3D6C7431AB
:100190009ABD56833DDA3D00C77F11BED9E4BB4C02
:1001A0003E916BAAAABE000000803F05A84CCDB2CC
:1001B000D44EB93836A9020C50B9918688083CA6AD
:1001C000AAAA2ABE000000803F000D94B04A0D94F8
:1001D000E34A0D9409560D94DC020D94B94A0D942E
:1001E000E74A0D94CF4A0D94C54D0D9439030D94F3
:1001F00050030D94D54A0D94C1000D94A84A0D9456
:10020000D8020D94AC4A0D94DD4A0D9471000D9402
:10021000BD4A0D94F04A0D94C14A0D94B64A0D940E
:10022000C74A0D94EB4A0D94D94A0D94DA020D9405
:10023000CB4A4E414E494E495459494E46CDCCCCFD
:100240003D0AD7233C17B7D13877CC2B329595E6AA
:10025000241FB14F0A000020410000C84200401C8A
:100260004620BCBE4CCA1B0E5AAEC59D7400407AD7
:1002700010F35A00A0724E18090010A5D4E800002F
:10028000E87648170000E40B54020000CA9A3B00CD
:100290000000E1F505000080969800000040420F44
:1002A000000000A08601000000102700000000E808
:1002B00003000000006400000000000A00000000CD
:1002C000000100000000002C76D888DC674F08236E
:1002D000DFC1DFAE59E1B1B796E5E3E453C63AE6D4
:1002E00051997696E8E6C28426EB898C9B62ED40B4
:1002F0007C6FFCEFBC9C9F40F2BAA56FA5F4900503
:100300005A2AF75C936B6CF9676DC11BFCE0E40D36
:1003100047FEF520E6B500D0ED902E03009435772A
:10032000050080841E080000204E0A000000C80C52
:10033000333333330F986E12831141EF8D211489BB
:100340003BE65516CFFEE6DB18D1844B381BF77C15
:100350001D901DA4BBE424203284725E228100C95A
:10036000F124ECA1E53D27434F4D4D554E49434106
:1003700054494F4E0044525952554E004552524F27
:10038000525300494E464F004543484F0047322FD5
:1003900047332062616420706172616D65746572BB
:1003A000730A00536C6565702E2E2E005A20507211
:1003B0006F62652050617374204265640A005A20A0
:1003C00050726F626520506173742042656400470B
:1003D00032384C3000205A3A200020593A2000424E
:1003E000656420583A20004D65736820706F696E0F
:1003F00074206F7574206F662072616E67650A00E5
:100400004D302053746F70004D312053746F700065
:10041000436C69636B20746F20526573756D652E34
:100420002E2E004E6F204D6F76652E00456E642097
:1004300066696C65206C6973740A00426567696E51
:100440002066696C65206C6973740A004E6F206DBC
:10045000656469610A00526573756D696E67205342
:100460004400706175736500526573756D65005069
:100470006175736520534400286E6F2066696C6552
:10048000290043757272656E742066696C653A2046
:10049000005344207072696E74696E6720627974CB
:1004A0006520004E6F74205344207072696E746929
:1004B0006E670A002E0A0044656C6574696F6E20D1
:1004C0006661696C65642C2046696C653A2000465B
:1004D000696C652064656C657465643A0050726986
:1004E0006E742074696D653A20000A5374617473E8
:1004F0003A2046696C616D656E7420757365643A67
:1005000020002C204C6F6E67657374206A6F623A0E
:100510002000546F74616C2074696D653A2000533B
:10052000746174733A20002C204661696C65643AEA
:1005300020002C2046696E69736865643A2000507B
:1005400072696E74733A200053746174733A2000B8
:100550006F6B006F666600880383037C0375036717
:100560000344454255473A004D3131332053004D45
:1005700043332076312E30204F46462E002F2F0059
:100580004D31343520533C696E6465783E206F757B
:1005900074206F662072616E67652028302D3129C6
:1005A0000A00205200416363656C65726174696F73
:1005B0006E3A2050004D32303620580046523A00F4
:1005C00020466C6F773A200020643A0020693A0098
:1005D00020703A00496E76616C69642065787472A7
:1005E000756465720A0020643A0020693A00207040
:1005F0003A0064697300656E0043290A0061626C09
:10060000656420286D696E2074656D702000436FED
:100610006C642065787472756465732061726520FE
:1006200000203B20486F73742068616E646C696EB3
:1006300067200046696C616D656E742072756E6F1F
:10064000757420004D34323120696E636F727265AB
:10065000637420706172616D657465722075736179
:1006600067650A004D65736820706F696E74206F4E
:100670007574206F662072616E67650A004F66664A
:1006800073657473204170706C69656400457272A3
:100690003A20546F6F206661722100546F6F20669C
:1006A00061722066726F6D207265666572656E6339
:1006B0006520706F696E740A00454550524F4D2099
:1006C0004F4B0A002E0A002028302D3130290020FF
:1006D00076616C7565206F7574206F662072616E2F
:1006E000676500416476616E6365204B3D004D385F
:1006F0003400446F6E65207072696E74696E672095
:1007000066696C650A004D3737004D333100535F21
:1007100058595A3A0020453A00205A3A0020593A8E
:1007200000583A004572726F722077726974696E70
:100730006720746F20454550524F4D210A00535495
:100740004F505045442E20005072696E74657220DF
:1007500073746F707065642064756520746F2065B4
:1007600072726F72732E20466978207468652065F6
:1007700072726F7220616E6420757365204D393915
:100780003920746F20726573746172742E2028543E
:10079000656D70657261747572652069732072652C
:1007A0007365742E205365742069742061667465C6
:1007B000722072657374617274696E67290A004EE3
:1007C0006F20436865636B73756D2077697468206B
:1007D0006C696E65206E756D6265722C204C61735C
:1007E00074204C696E653A20004E6F204368656343
:1007F0006B73756D2077697468206C696E65206E07
:10080000756D6265722C204C617374204C696E6545
:100810003A2000636865636B73756D206D69736D55
:10082000617463682C204C617374204C696E653A66
:1008300020004C696E65204E756D6265722069738B
:10084000206E6F74204C617374204C696E65204E6D
:10085000756D6265722B312C204C617374204C696C
:100860006E653A20004D3131300053657269616C1C
:1008700020737461747573206D69736D617463683E
:100880000A0053442072656164206572726F720AB7
:10089000002121204B494C4C206361757365642015
:1008A000627920746F6F206D75636820696E616373
:1008B000746976652074696D65202D206375727288
:1008C000656E7420636F6D6D616E643A20006275B1
:1008D00073793A2070617573656420666F72206960
:1008E0006E7075740A00627573793A207061757361
:1008F000656420666F7220757365720A0062757395
:10090000793A2070726F63657373696E670A004D80
:10091000363030002066696C616D656E745F72758B
:100920006E6F7574200066696C616D656E745F72C0
:10093000756E6F757420540046696C616D656E74D8
:1009400052756E6F75742054005072696E74696EC2
:1009500067204F626A656374002553202569002F64
:100960002F616374696F6E3A0070726F6D70745F9F
:1009700000656E6400486F74656E6420746F6F204C
:10098000636F6C640A004732362043616E63656CA6
:100990006564004732362048656174696E67204E91
:1009A0006F7A7A6C65004732362048656174696EEB
:1009B00067204265640057616974696E6720666FDD
:1009C00072206865617475702E0A004669786564E6
:1009D000204C656E677468205072696D6500446FC5
:1009E0006E65205072696D696E67004D616E75614C
:1009F0006C207072696D696E672E2E2E004C6561D9
:100A000076696E6720473236003F537065636966CA
:100A100069656420582C5920636F6F7264696E6138
:100A20007465206F7574206F6620626F756E6473D5
:100A30002E0A003F28522965706561742076616C2A
:100A40007565206E6F7420706C61757369626C657A
:100A50003B206D757374206265206174206C656144
:100A6000737420312E0A003F5370656369666965AF
:100A700064206E6F7A7A6C652074656D7065726142
:100A800074757265206E6F7420706C617573696225
:100A90006C652E0A003F5370656369666965642062
:100AA00066696C616D656E742073697A65206E6F1E
:100AB0007420706C61757369626C652E0A003F5317
:100AC0007065636966696564207072696D65206C24
:100AD000656E677468206E6F7420706C61757369E1
:100AE000626C652E0A003F537065636966696564D0
:100AF000206E6F7A7A6C652073697A65206E6F74E8
:100B000020706C61757369626C652E0A003F5265D6
:100B10007472616374696F6E204D756C7469706C6A
:100B2000696572206D7573742062652073706563EA
:100B300069666965642E0A003F537065636966697A
:100B400065642052657472616374696F6E204D75BF
:100B50006C7469706C696572206E6F7420706C6162
:100B6000757369626C652E0A003F53706563696630
:100B7000696564206C61796572206865696768746D
:100B8000206E6F7420706C61757369626C652E0ADB
:100B90000043292E0A003F537065636966696564E6
:100BA000206265642074656D70657261747572652C
:100BB000206E6F7420706C61757369626C6520289B
:100BC00034302D00473236207374617274696E6759
:100BD0002E2E2E0A00416D6178204500416D61780E
:100BE000205A00416D6178205900416D617820588C
:100BF00000412D54726176656C00412D526574720E
:100C000061637400416363656C0056652D4A6572CB
:100C10006B00565A2D4A65726B0056592D4A657203
:100C20006B0056582D4A65726B005A2050726F62E5
:100C3000652057697A6172640050726F6265205A4C
:100C4000204F66667365740050726F62652059208C
:100C50004F66667365740050726F62652058204F4E
:100C6000666673657400452073746570732F6D6DCF
:100C7000005A2053746570732F6D6D0059205374A2
:100C80006570732F6D6D00582053746570732F6DF0
:100C90006D00416476616E636564205365747469A8
:100CA0006E6773003F0043616E63656C00496E6957
:100CB00074004D34323800496E697469616C697A28
:100CC0006520454550524F4D0046696C616D656E1B
:100CD000740054656D70657261747572650053744B
:100CE0006570732F6D6D0050726F6265204F666680
:100CF00073657473004A65726B00416363656C656C
:100D0000726174696F6E0056656C6F636974790007
:100D100053657420486F6D65204F66667365747304
:100D200000436F6E66696775726174696F6E006FFC
:100D300070656E00545249474745524544003A2079
:100D40000066696C616D656E74007A5F6D696E0036
:100D5000795F6D617800785F6D696E005265706FC4
:100D60007274696E6720656E6473746F702073743B
:100D7000617475730A0020746F6F206C6F6E67204A
:100D8000657874727573696F6E2070726576656EC2
:100D90007465640A0020636F6C64206578747275F2
:100DA00073696F6E2070726576656E7465640A0093
:100DB000486F6D652025732573257320466972730E
:100DC0007400486F6D696E67204661696C656400E8
:100DD000000030C10000C242000000005761726E86
:100DE000696E673A20486F6D696E672042756D7055
:100DF0002044697669736F72203C20310A00020238
:100E0000040000C8420000C24200000C430000A0E1
:100E1000400000A04000000040FF01FF554E4C4F35
:100E200041442046494C414D454E54004C4F4144AD
:100E30002046494C414D454E540046494C414D4594
:100E40004E54204348414E474500426564004E6F72
:100E50007A7A6C650046616E205370656564004364
:100E60006F6E66696775726174696F6E0052657343
:100E7000746F72652044656661756C7473004C6FA5
:100E800061642053657474696E67730053746F7284
:100E9000652053657474696E677300507265686588
:100EA0006174202420436F6E66004F6666004F6EAB
:100EB0000052756E6F75742053656E736F720050BB
:100EC000726F6265205A204F6666736574004164D4
:100ED00076616E6365642053657474696E67730030
:100EE0004D61696E004D37303220542564004D3617
:100EF000303020423020542564004D373032203BC2
:100F00002564004D37303120542564004D37303290
:100F1000004D373031004D363030204230004D61C9
:100F2000696E00436F6E74696E7565004F6666008A
:100F30004F6E0052756E6F75742053656E736F72CD
:100F4000005075726765206D6F726500524553558C
:100F50004D45204F5054494F4E533A005052494E40
:100F600054205041555345440020204E6F7A7A6CEE
:100F7000653A20005061726B696E672E2E2E00005C
:100F8000005761697420666F720066696C616D65F7
:100F90006E74206368616E676500746F207374619E
:100FA0007274005761697420666F720066696C61C3
:100FB0006D656E7420756E6C6F616400004E6F7AA3
:100FC0007A6C652068656174696E6700506C656154
:100FD000736520776169742E2E2E00005072657340
:100FE0007320627574746F6E00746F20686561742D
:100FF000206E6F7A7A6C650000496E73657274209A
:1010000066696C616D656E7400616E6420707265F6
:10101000737320627574746F6E00746F20636F6EEB
:1010200074696E7565005761697420666F72006639
:10103000696C616D656E74206C6F61640000507244
:1010400065737320427574746F6E00746F207265DF
:1010500073756D65207072696E74000057616974F4
:1010600020666F72207072696E7400746F207265F2
:1010700073756D652E2E2E00005761697420666FA2
:10108000720066696C616D656E742070757267655B
:1010900000003E2000256C642E25696D00457874A3
:1010A000727564656420546F74616C003E20004C5E
:1010B0006F6E67657374204A6F622054696D6500B6
:1010C0003E2000546F74616C205072696E7420541D
:1010D000696D6500436F6D706C65746564003A20DE
:1010E000005072696E7420436F756E74003A200070
:1010F0004C6F6164206D6D00556E6C6F6164206D86
:101100006D0046696C2E204469612E004520696E91
:10111000206D6D5E3300416476616E6365204B0027
:101120004D33303320553120452569205325690042
:10113000504944204175746F74756E65202A0050C3
:1011400049442D44202A005049442D49202A00506A
:1011500049442D50202A0020082046616374002055
:1011600008204D6178002008204D696E004F6666AA
:10117000004F6E004175746F74656D700056547247
:101180006176204D696E00566D696E00566D61780E
:10119000204500566D6178205A00566D61782059BF
:1011A00000566D617820580042656420436F6F6C73
:1011B000696E672E2E2E0042656420486561746951
:1011C0006E672E2E2E0023646566696E6520444589
:1011D0004641554C545F00626564004B6420004BEF
:1011E0006920004B702000504944204175746F7491
:1011F000756E652066696E69736865642120507537
:101200007420746865206C617374204B702C204BC3
:101210006920616E64204B6420636F6E7374616E2D
:1012200074732066726F6D2062656C6F7720696ED3
:10123000746F20436F6E66696775726174696F6E53
:101240002E680A00504944204175746F74756E65AC
:10125000206661696C6564212074696D656F7574C1
:101260000A00504944204175746F74756E6520669C
:1012700061696C6564212054656D70657261747577
:10128000726520746F6F20686967680A00204B647C
:101290003A2000204B693A2000204B703A20002071
:1012A000436C617373696320504944200A00204EE7
:1012B0006F206F76657273686F6F740A00205475C3
:1012C0003A2000204B753A2000206D61783A2000CA
:1012D000206D696E3A200020643A20002062696126
:1012E000733A2000504944204175746F74756E65DF
:1012F0002073746172740A00504944204175746F00
:1013000074756E65206661696C6564212054656D35
:10131000706572617475726520746F6F206869679B
:10132000680A00504944204175746F74756E6500F9
:10133000504944204175746F74756E65206661690B
:101340006C65642120426164206865617465722067
:1013500069640A004572723A207574663820666FB7
:101360006E74206E6F7420696E697469616C697A3D
:1013700065642E004572723A207574663820666F77
:101380006E74206E6F7420696E697469616C697A1D
:1013900065642E004572723A207574663820666F57
:1013A0006E74206E6F7420696E697469616C697AFD
:1013B00065642E002568753A253032687500253041
:1013C0003268753A253032687500256875642025C5
:1013D000303268753A25303268750000091200FC19
:1013E0000A01E803D720FFFD0EFD0BFD00000009F8
:1013F000000E010B0B09040080808080808080003B
:1014000000808004040409030790909090080A0A61
:10141000090000242424FF2424FF242424070B0B88
:101420000901FF107C929050381412927C10070A28
:101430000A09010042A4A4481010244A4A84070A59
:101440000A0901006090909060629488946201049F
:101450000409040780808080030C0C0903FF2040EE
:1014600040808080808080404020030C0C0903FF76
:10147000804040202020202020404080070707098E
:101480000103109254385492100707070901011004
:101490001010FE1010100204040904FEC0C04080A9
:1014A000070101090104FE020202090400C0C0078D
:1014B0000A0A0901000204040810102040408007B5
:1014C0000A0A0901003844828282828282443807F3
:1014D0000A0A090100103050901010101010FE0779
:1014E0000A0A090100384482020408102040FE075D
:1014F0000A0A090100FE020408180402028478079F
:101500000A0A090100040C14244484FE040404079C
:101510000A0A090100FE808080F80402028478072C
:101520000A0A0901003C408080B8C482824438071E
:101530000A0A090100FE020404080810101010072E
:101540000A0A090100384482443844828244380738
:101550000A0A09010038448282463A0202047802EB
:101560000707090400C0C0000000C0C00209090943
:1015700004FEC0C0000000C0C04080050909090287
:1015800000081020408040201008070404090102D0
:10159000FE0000FE05090909020080402010081025
:1015A000204080070A0A090100384482020408101A
:1015B000100010070A0A09010038449AAAAAAAAA28
:1015C0009C403C070A0A09010010282828447C4452
:1015D000828282070A0A090100F8848284F88482E0
:1015E0008284F8070A0A0901003C428080808080DA
:1015F00080423C070A0A090100F8848282828282C2
:101600008284F8070A0A090100FE808080F8808041
:101610008080FE070A0A090100FE808080F8808031
:10162000808080070A0A09010038448280808E8207
:10163000824438070A0A09010082828282FE82827D
:10164000828282050A0A090200F820202020202038
:101650002020F8070A0A0901003E080808080808BF
:10166000888870070A0A09010082848890A0D088BF
:10167000848282070A0A090100808080808080803D
:101680008080FE070A0A0901008282C6AA9282822D
:10169000828282070A0A0901008282C2A2928A8695
:1016A000828282070A0A0901007C82828282828207
:1016B00082827C070A0A090100F884828284F88009
:1016C000808080080B0B0901FF384482828282826D
:1016D0008A443A01070A0A090100F884828284F8E0
:1016E00090888482070A0A0901007C8280807C023B
:1016F0000202827C070A0A090100FE101010101075
:1017000010101010070A0A09010082828282828268
:1017100082824438070A0A090100828282444444D2
:1017200028282810070A0A090100828282829292E0
:101730009292AA44070A0A090100828244281010E2
:1017400028448282070A0A09010082824428101074
:1017500010101010070A0A090100FE0204081020E8
:10176000408080FE040C0C0903FFF08080808080A4
:101770008080808080F0070A0A09010080404020B4
:10178000101008040402040C0C0902FFF0101010E1
:1017900010101010101010F0070404090106102892
:1017A00044820801010900FFFF03030309030A80C3
:1017B00040200707070901007C02027E82867A0723
:1017C0000A0A090100808080BCC2828282C2BC07F2
:1017D00007070901007C82808080827C070A0A0951
:1017E00001000202027A86828282867A070707094E
:1017F00001007C8282FE80827C070A0A0901001CAB
:1018000022222020F820202020070A0A0901FD7A40
:1018100084848478807C82827C070A0A09010080A3
:101820008080BCC28282828282050A0A090200602C
:101830000000E02020202020F8050D0D0902FD18F1
:10184000000038080808080808888870070A0A098C
:101850000100808080848890B0C88482050A0A09CB
:101860000200E02020202020202020F80707070980
:101870000100EC929292929282070707090100BC44
:10188000C282828282820707070901007C828282EB
:1018900082827C070A0A0901FDB8C4828282C4B828
:1018A000808080070A0A0901FD3A46828282463A10
:1018B0000202020707070901009C624240404040C3
:1018C0000707070901007C82807C02827C070909E6
:1018D0000901002020FC20202020221C07070709E6
:1018E00001008282828282867A07070709010082CC
:1018F0008244442828100707070901008282929237
:1019000092AA44070707090100824428102844824C
:10191000070A0A0901FD4242242424181810906085
:10192000070707090100FE0408102040FE060B0B04
:101930000902001C20202020C0202020201C010C97
:101940000C0904FF8080808080808080808080807F
:10195000060B0B090100E0101010100C10101010F5
:10196000E007030309010762928CFFFFFFFFFFFFFF
:10197000FFFFFFFFFFFFFFFFFFFFFFFFFFFFFFFF77
:10198000FFFFFFFFFFFFFFFFFFFFFF000000090059
:101990000E010B0B09040080800000808080808095
:1019A000808006080809010008789490A0A4784077
:1019B000070A0A0901001C222020F8202060A25CEE
:1019C000070606090103827C44447C82070A0A094F
:1019D0000100828244287C107C101010010B0B093E
:1019E00004FF8080808080008080808080040B0BDA
:1019F0000902FF60908060909090601090600302F8
:101A00000209030BA0A00809090900013C4299A59D
:101A1000A1A599423C0507070901036090709078E1
:101A200000F8070808090101122448909048241280
:101A3000060404090102FC0404040501010902046E
:101A4000F80809090900013C42B9A5BDA9A5423C15
:101A5000060101090109FC040404090306609090D1
:101A600060070909090101101010FE10101000FE96
:101A70000406060901046090106080F0040606095F
:101A8000010460902010906003030309030A2040C2
:101A9000800709090901FE8282828282C6BA80809B
:101AA000070A0A0901007E8A8A8A7A0A0A0A0A0A49
:101AB000020202090404C0C00403030902FD2090CD
:101AC0006003060609010440C0404040E0050606E8
:101AD0000901047088887000F8070808090101905E
:101AE00048241212244890070A0A09010040C04005
:101AF0004042E60A121A06070A0A09010040C040DD
:101B0000404CF2020C101E070A0A090100609020E6
:101B10001092660A121A06070A0A0901001000103C
:101B20001020408082827C070E0E090100201008E0
:101B30000010282828447C44828282070E0E090166
:101B4000000810200010282828447C448282820744
:101B50000E0E0901001028440010282828447C4457
:101B6000828282070D0D09010034580010282828B0
:101B7000447C44828282070D0D0901002828001050
:101B8000282828447C44828282070E0E0901001016
:101B900028281010282828447C44828282070A0AB8
:101BA0000901001E2828284E784888888E070D0DC8
:101BB0000901FD3C42808080808080423C082418DE
:101BC000070E0E09010020100800FE808080F880BA
:101BD000808080FE070E0E09010008102000FE80A4
:101BE0008080F880808080FE070E0E09010010289A
:101BF0004400FE808080F880808080FE070D0D0903
:101C00000100282800FE808080F880808080FE050A
:101C10000E0E09020040201000F820202020202075
:101C20002020F8050E0E09020010204000F82020A8
:101C3000202020202020F8050E0E090200205088C8
:101C400000F82020202020202020F8050D0D09027A
:101C500000505000F82020202020202020F8070AE3
:101C60000A09010078444242F24242424478070D98
:101C70000D0901003458008282C2A2928A868282B3
:101C800082070E0E090100201008007C82828282E9
:101C9000828282827C070E0E090100081020007CDF
:101CA00082828282828282827C070E0E090100106B
:101CB0002844007C82828282828282827C070D0D8F
:101CC0000901003458007C82828282828282827C76
:101CD000070D0D0901002828007C82828282828201
:101CE00082827C0707070901018244281028448268
:101CF000070C0C0901FF027C868A8A9292A2A2C27A
:101D00007C80070E0E09010020100800828282826A
:101D1000828282824438070E0E09010008102000DA
:101D200082828282828282824438070E0E090100FA
:101D30001028440082828282828282824438070D87
:101D40000D090100282800828282828282828244D8
:101D500038070E0E09010008102000828244281066
:101D60001010101010070A0A0901008080FC8282FE
:101D700082FC808080060A0A09010038444448D069
:101D80004844444458070B0B090100201008007C0C
:101D900002027E82867A070B0B09010008102000E0
:101DA0007C02027E82867A070B0B09010010284410
:101DB000007C02027E82867A070A0A0901003458F2
:101DC000007C02027E82867A070A0A09010028281E
:101DD000007C02027E82867A070C0C090100102822
:101DE0002810007C02027E82867A0707070901001C
:101DF0006C12127E90926C070A0A0901FD7C8280A7
:101E00008080827C104830070B0B090100201008ED
:101E1000007C8282FE80827C070B0B090100081087
:101E200020007C8282FE80827C070B0B090100105F
:101E30002844007C8282FE80827C070A0A09010015
:101E40002828007C8282FE80827C050C0C0902001E
:101E50008040200000E02020202020F8050C0C0904
:101E600002001020400000E02020202020F8050C77
:101E70000C0902002050880000E02020202020F8DB
:101E8000050B0B09020050500000E020202020200C
:101E9000F8070B0B090100483050083C448282824D
:101EA0004438070A0A090100345800BCC282828201
:101EB0008282070B0B090100201008007C828282BD
:101EC00082827C070B0B090100081020007C8282B3
:101ED0008282827C070B0B090100102844007C825F
:101EE000828282827C070A0A0901003458007C82BF
:101EF000828282827C070A0A0901002828007C82EB
:101F0000828282827C07090909010010381000FED4
:101F1000001038100709090901FF027C8A8A92A281
:101F2000A27C80070B0B09010040201000828282F6
:101F30008282867A070B0B0901000810200082823A
:101F4000828282867A070B0B0901001028440082E6
:101F500082828282867A070A0A0901002828008282
:101F600082828282867A070E0E0901FD0408100023
:101F700042422424241818109060070B0B0901FE1C
:101F80008080B8C4828282C4B88080070D0D0901A8
:101F9000FD24240042422424241818109060000CD0
:101FA0000F00FE07022503BB017FFE08FE08FE05A9
:101FB000080806000040F0C88888987810050808CE
:101FC000060000C0F88888888888F805050506009E
:101FD000012030F830200508080600002070F820A5
:101FE000202020E00509090600FF2070A8A8B88875
:101FF000887020070505070001D86C366CD80509E4
:10200000090600FFF8A88888888888A8F8050A0AC1
:102010000600FE205050505088A8A8887003030383
:1020200006000340A040FFFFFFFFFFFFFFFFFFFF91
:10203000FFFFFFFFFFFFFFFFFFFFFFFF00000006A6
:1020400005FF010707060200808080808000800372
:102050000303060105A0A0A005060606000050F82F
:102060005050F8500509090600FF2070A8A07028FC
:10207000A87020050707060000C8C81020409898DF
:1020800005070706000040A0A040A89068010303D0
:102090000602058080800309090601FF2040408078
:1020A00080804040200309090601FF804040202035
:1020B0002040408005070706000020A8702070A877
:1020C000200505050600012020F820200203030654
:1020D00001FFC04080050101060003F8020202066C
:1020E0000100C0C00507070600000810102040408E
:1020F00080050707060000708898A8C88870030745
:102100000706010040C040404040E00507070600C8
:1021100000708808102040F8050707060000F8083E
:10212000103008887005070706000010305090F83E
:102130001010050707060000F880F00808887005F1
:102140000707060000304080F08888700507070602
:102150000000F80810102020200507070600007076
:10216000888870888870050707060000708888785E
:10217000081060020505060100C0C000C0C00206CC
:10218000060601FFC0C000C040800305050601012E
:102190002040804020050303060002F800F80305F4
:1021A00005060101804020408005070706000070F9
:1021B0008810202000200507070600007088B8A8B6
:1021C000B88070050707060000708888F88888883E
:1021D000050707060000F04848704848F005070763
:1021E0000600007088808080887005070706000060
:1021F000F04848484848F0050707060000F8808086
:10220000F08080F8050707060000F88080F08080E5
:102210008005070706000070888080988870050791
:1022200007060000888888F8888888030707060161
:1022300000E04040404040E005070706000038103D
:1022400010101090600507070600008890A0C0A03D
:102250009088050707060000808080808080F80550
:10226000070706000088D8A8888888880507070619
:1022700000008888C8A898888805070706000070AD
:10228000888888888870050707060000F08888F02D
:1022900080808005070706000070888888A89068FD
:1022A000050707060000F08888F0A090880507075A
:1022B0000600007088807008887005070706000017
:1022C000F8202020202020050707060000888888A5
:1022D000888888700507070600008888888850501D
:1022E0002005070706000088888888A8A8500507E9
:1022F00007060000888850205088880507070600D8
:102300000088885020202020050707060000F808D4
:1023100010204080F80309090601FFE080808080DA
:10232000808080E0050707060000804040201010F4
:10233000080309090601FFE020202020202020E0DA
:102340000503030600052050880501010600FEF87C
:102350000303030601058040200505050600007003
:10236000087888780507070600008080F08888884C
:10237000F0050505060000708080887005070706D7
:102380000000080878888888780505050600007030
:1023900088F08070050707060000304840E04040A4
:1023A000400507070600FE708888887808700507D2
:1023B000070600008080F0888888880307070601E8
:1023C000004000C0404040E00409090601FE100042
:1023D00030101010109060050707060000808088FC
:1023E00090E09088030707060100C040404040404D
:1023F000E0050505060000D0A8A8A8A80505050663
:102400000000B0C888888805050506000070888827
:1024100088700507070600FEF0888888F080800530
:1024200007070600FE7888888878080805050506ED
:102430000000B0C880808005050506000078807027
:1024400008F00507070600002020F82020201805C6
:1024500005050600008888889868050505060000BF
:1024600088888850200505050600008888A8A8509F
:10247000050505060000885020508805070706005E
:10248000FE88888850204080050505060000F81069
:102490002040F80309090601FF20404040804040E9
:1024A00040200109090602FF8080808080808080B2
:1024B000800309090601FF804040402040404080E1
:1024C00005030306000248A890FF0A4D3234004D70
:1024D0003233202573002E0A006F70656E2066610E
:1024E000696C65642C2046696C653A200046696C0D
:1024F000652073656C65637465640A002053697AAE
:10250000653A200046696C65206F70656E65643AB7
:102510002000454E4420535542524F5554494E4594
:102520000A002220706F73002220706172656E7441
:102530003A2200535542524F5554494E452043418B
:102540004C4C207461726765743A22005375626363
:10255000616C6C204F766572666C6F7700457863AE
:102560006565646564206D617820535542524F550E
:1025700054494E452064657074683A005772697416
:10258000696E6720746F2066696C653A2000667218
:1025900065736800646F696E67002066696C653AF0
:1025A00020004E6F7720002F6175746F25632E67B2
:1025B00000FFE0FFD1AFFF32FFD0FFFEFFE0FFD111
:1025C000AEFFD0FFFEFFE0FFD11000FFFEFFD0FF07
:1025D000E0FFC1FFD1AED580A83FD300408D1420CD
:1025E00002A1C8DA1281CFD9F1DB402EA4A6AFFF39
:1025F000D0FFFE7C3C3E5E2B3D3F2F5B5D3B2C2A9B
:10260000225C0043616E6E6F74206F70656E207384
:102610007562646972200053442063617264206FA4
:102620006B0A006F70656E526F6F74206661696C23
:1026300065640A00766F6C756D652E696E6974202D
:102640006661696C65640A004E6F205344206361C3
:1026500072640A0043616E63656C00446F6E6500CE
:102660004D6F76652025736D6D004D6F766520305A
:102670002E316D6D004D6F766520316D6D0050729D
:102680006F6265205A204F6666736574005A3D007C
:102690004D6F7665204E6F7A7A6C6520746F20429C
:1026A0006564004D6F76696E6720746F2050726F9D
:1026B00062696E6720506F7300486F6D696E6720A6
:1026C00058595A0047323800507265686561742065
:1026D0002420456E64005072656865617420242072
:1026E0004265640054656D70657261747572650051
:1026F000436F6F6C646F776E0050726568656174CC
:1027000020240046616E2053706565640042656454
:10271000004E6F7A7A6C65004D61696E0050726F81
:102720006265205A204F6666736574004164766165
:102730006E6365204B00466C6F770046616E2053D8
:102740007065656400426564004E6F7A7A6C65005E
:102750005370656564004D61696E004572723A2080
:102760004D415854454D50004D415854454D502011
:10277000747269676765726564004572723A204DCC
:10278000494E54454D50004D494E54454D502074CE
:10279000726967676572656400544845524D414CE3
:1027A0002052554E4157415900546865726D616C15
:1027B0002052756E6177617900202F002042403AE7
:1027C0000020403A0020573A0020573A00496E76E0
:1027D000616C69642065787472756465720A004D75
:1027E00043332076312E302052656164792E0050BB
:1027F00072696E74696E672E2E2E005072696E7447
:10280000205061757365640020453A00205A3A00F3
:1028100020593A00583A0020746F6F206C6F6E6731
:1028200020657874727573696F6E20707265766555
:102830006E7465640A0020636F6C6420657874723E
:102840007573696F6E2070726576656E7465640A63
:10285000003135300035004245443A2031252062B0
:1028600065746120333935300052756E6177617956
:102870002057617463683A204F4E004D61782054B0
:10288000656D7000323935004D696E2054656D708C
:1028900000350045313A20312520626574612033CE
:1028A000393530005053550047656E6572696300D5
:1028B00050726F746F636F6C00312E30004261751F
:1028C00064003235303030300052414D50532031A9
:1028D0002E340042696C696E656172204C657665C4
:1028E0006C696E6700457874727564657273003147
:1028F000006D61726C696E66772E6F7267004D4372
:10290000332076312E3000323032312D30362D32B8
:102910003700322E302E392E31004D61726C696EC7
:10292000005072696E746572205374617473005440
:102930006865726D6973746F727300426F6172645F
:1029400020496E666F005072696E74657220496E20
:10295000666F004D61696E004731205A383020465D
:10296000333830004731205A30204633303000476A
:1029700031205A3120463335300A47312058313022
:1029800020593930204637303030004731205A3115
:1029900020463335300A47312058313020593930FC
:1029A000204637303030004731205A312046333509
:1029B000300A4731205839302059313020463730DD
:1029C0003030004731205A3120463335300A473104
:1029D00020583130205931302046373030300052C5
:1029E00049474854204241434B004C4546542046F9
:1029F000524F4E54004C454654204241434B0052E6
:102A0000494748542046524F4E54205045544700A1
:102A1000474F20444F574E00474F205550004D61BF
:102A2000696E003F004261636B0053746F70004138
:102A30007474616368204D65646961004D323100D2
:102A40005072696E742066726F6D204D65646961A5
:102A50000052656C65617365204D65646961004D68
:102A60003232004368616E67652046696C616D654E
:102A70006E74004661737420706F736974696F6E51
:102A8000696E6700436F6E66696775726174696F1E
:102A90006E0054656D7065726174757265004D6F7E
:102AA00074696F6E00526573756D65205072696E42
:102AB000740043616E63656C204F626A65637400E5
:102AC00054756E650053746F70205072696E740097
:102AD0005061757365205072696E740041626F7544
:102AE00074205072696E74657200496E666F20536F
:102AF000637265656E0042656400456E636C6F735A
:102B00007572650020202020202020002020202019
:102B1000001FE03FF03FF03FF01FE01FE03FF03FBD
:102B2000F03FF00FC0078003001FE02010201020AE
:102B30001010201020201020103030084004800396
:102B40000001FE0006018008FC4010FC20107820E7
:102B50002030102C00D02E31D02F7BD02F7BD02EC8
:102B600031D02C00D020301010782010FC2008FC30
:102B70004006018001FE0001FE000601800986403A
:102B80001387201787A02F87D02F03D02030102045
:102B900078102078102030102F03D02F87D017877F
:102BA000A013872009864006018001FE00FFFFC0B8
:102BB0004000202000101000080800040400020358
:102BC000FFFF02220004440004440002220001111D
:102BD00000FFFFC04088A021111012220808000445
:102BE00004000203FFFF0000C8420000C2420000D0
:102BF0000C430000000000000000000000005365CE
:102C00007474696E67732053746F72656400290A67
:102C1000002062797465733B206372632000536502
:102C20007474696E67732053746F72656420280032
:102C30001000AA03F0013A019002220130031001B2
:102C4000D00302017004F7001005ED00B005E500A7
:102C50005006DD00F006D7009007D1003008CC0008
:102C6000D008C7007009C300100ABE00B00ABB003C
:102C7000500BB700F00BB300900CB000D00DAA00C1
:102C8000100FA5005010A00090119B00D0129600CC
:102C9000B014900090168B0070188500501A8000B8
:102CA000301C7B00B01E750030216F00B02369001E
:102CB0003026640010285F00902A5A00702C5500BE
:102CC000F02E4F0070314800B0324500F033410023
:102CD00070363900103737005038330090392D00E6
:102CE000D03A2700B03C1C00503D1700F03D1100C9
:102CF000903E0900D03FE5FF2020506C616E6E656C
:102D00007242756666657242797465733A20002076
:102D100046726565204D656D6F72793A2000436F8C
:102D20006D70696C65643A204A756C2020382032D9
:102D30003032310A00204C61737420557064617424
:102D400065643A20323032312D30362D3237207CD6
:102D500020417574686F723A20284A4746545729B3
:102D60000A00322E302E392E310A004D61726C6904
:102D70006E0020536F6674776172652052657365CB
:102D8000740A00205761746368646F67205265732A
:102D900065740A002042726F776E206F757420523E
:102DA000657365740A002045787465726E616C20E5
:102DB00052657365740A00506F77657255700A002A
:102DC00073746172740A004732385859004D3130BB
:102DD0003031006572726F722077726974696E6744
:102DE00020746F2066696C650A00446F6E652073FD
:102DF0006176696E672066696C652E0A004D32390E
:102E000000456E6473746F70730025532025632032
:102E1000256320256320256300205A3A0020593A73
:102E20000020583A00656E6473746F70732068698F
:102E3000743A200048617264636F6465642044657D
:102E40006661756C742053657474696E6773204C89
:102E50006F616465640A003B20003A0A0020204D3F
:102E6000363033200020204D343132205300466963
:102E70006C616D656E742072756E6F75742073650C
:102E80006E736F723A002055004C0046696C616D9C
:102E9000656E74206C6F61642F756E6C6F61642059
:102EA0006C656E677468733A0020204D39303020AD
:102EB0004B004C696E65617220416476616E63659A
:102EC0003A0020204D3835312058005A2D50726F6D
:102ED0006265204F666673657400204400204900D7
:102EE00020204D3330342050002044002049002061
:102EF000204D3330312050005049442073657474A4
:102F0000696E67733A002046002042002048002086
:102F1000204D3134352053004D6174657269616C08
:102F20002068656174757020706172616D6574658B
:102F300072733A00204A0020204732392057204936
:102F40000020204D3432302053004175746F2042F0
:102F50006564204C6576656C696E673A0020204D8B
:102F6000323036205800486F6D65206F6666736595
:102F7000743A0020580020530020204D3230352074
:102F80004200416476616E6365643A20423C6D693B
:102F90006E5F7365676D656E745F74696D655F758F
:102FA000733E20533C6D696E5F6665656472617443
:102FB000653E20543C6D696E5F74726176656C5F2E
:102FC00066656564726174653E20583C6D61785F2A
:102FD000785F6A65726B3E20593C6D61785F795FFE
:102FE0006A65726B3E205A3C6D61785F7A5F6A65F4
:102FF000726B3E20453C6D61785F655F6A65726B00
:103000003E0020540020520020204D323034205009
:1030100000416363656C65726174696F6E20287529
:103020006E6974732F7332293A20503C7072696E46
:10303000745F616363656C3E20523C7265747261BB
:1030400063745F616363656C3E20543C74726176A7
:10305000656C5F616363656C3E0020204D323031EA
:103060002058004D6178696D756D20416363656C12
:1030700065726174696F6E2028756E6974732F7341
:1030800032293A00204500205A0020590020204DC6
:103090003230332058004D6178696D756D2066655A
:1030A000656472617465732028756E6974732F731B
:1030B000293A0053746570732070657220756E69CB
:1030C000743A0020440020204D323030205300203C
:1030D00044697361626C65640A0046696C616D6580
:1030E0006E742073657474696E67733A0020204DA6
:1030F0003134392043203B20556E69747320696E4A
:103100002043656C736975730A0020286D6D290072
:103110002020473231202020203B20556E697473D7
:1031200020696E206D6D00454550524F4D20646101
:10313000746173697A65206572726F722E0A002954
:103140000A002062797465733B206372632000205B
:1031500073746F7265642073657474696E6773202D
:103160007265747269657665642028002028636141
:103170006C63756C6174656429210A0020213D200F
:1031800000454550524F4D20435243206D69736DA9
:1031900061746368202D202873746F726564292020
:1031A000002053697A653A2000496E6465783A20B8
:1031B000000000FA430000FA43000070410000A044
:1031C000420000A0420000A04200004844CD4C173D
:1031D00043B80B0000B80B000064000000401F0063
:1031E00000204D61726C696E3D563833290A0045E6
:1031F0004550524F4D2076657273696F6E206D6930
:10320000736D617463682028454550524F4D3D00F1
:103210003F005374617274205072696E7400436190
:103220006E63656C005072696E740043616E6E6F00
:103230007420656E746572207375626469723A20D9
:1032400000022E2E000152656672657368004261AD
:10325000636B004D61696E002100486F74656E6498
:1032600020746F6F20636F6C64004261636B005069
:10327000726F63656564004F6666004F6E00536F42
:10328000667420456E6473746F7073004D6F74695B
:103290006F6E0044697361626C6520537465707071
:1032A000657273004D3834004D34382050726F62AF
:1032B000652054657374004732384F0A4D34382006
:1032C00050313000426564204C6576656C696E67EC
:1032D000004175746F205A2D416C69676E00473349
:1032E0003400486F6D65205A004732385A00486FE5
:1032F0006D652059004732385900486F6D65205878
:103300000047323858004175746F20486F6D650072
:103310004D61696E005A2056616C756500496E6496
:103320006578205900496E64657820580053746FA1
:1033300072652053657474696E6773004C6F6164C5
:103340002053657474696E67730050726F626520F4
:103350005A204F666673657400466164652048654F
:1033600069676874004F6666004F6E0042656420AE
:103370004C6576656C696E670045646974204D65BF
:103380007368004C6576656C20426564004732398D
:103390004E00473239004175746F20486F6D6500EB
:1033A0004D6F74696F6E003F0043616E63656C2002
:1033B0004F626A656374004E4F0059455300436184
:1033C0006E63656C204F626A656374203D004D61D9
:1033D000696E00414253005045544700504C410033
:1033E000004D6F76652025736D6D004D6F766520FD
:1033F000302E316D6D004D6F766520316D6D004D55
:103400006F76652031306D6D004D6F7665204178A7
:103410006973004578747275646572004D6F7665E6
:10342000205A004D6F76652059004D6F7665205803
:1034300000DC33D733D3334368616E676520466958
:103440006C616D656E7400556E6C6F6164204669C9
:103450006C616D656E74004C6F61642046696C61CF
:103460006D656E7400507265686561742043757394
:10347000746F6D005072656865617420240042614C
:10348000636B005072696E742066726F6D204D65BB
:10349000646961005741524E494E4721204C6F7775
:1034A000205A204A65726B206D6179206C656164D9
:1034B00020746F20756E77616E746564207061751D
:1034C0007365732E0A00204D393220580020204D9C
:1034D00061783A2000200020204D696E3A20005388
:1034E0006F667420656E6473746F70733A20007039
:1034F000617573656400506175736500496E73652D
:1035000072742066696C616D656E7420616E6420F2
:1035100073656E64204D3130380A0052656865610C
:103520007420446F6E6500526568656174696E67EA
:103530002E2E2E00526568656174004865617465C1
:10354000722054696D656F75740053656E64204D0B
:1035500031303820746F2068656174206E6F7A7A1C
:103560006C650A004E6F7A7A6C65205061726B65EB
:103570006400726573756D656400526573756D697D
:103580006E670020496E76616C696420657874729C
:103590007564657220006E6F746966696361746931
:1035A0006F6E20006E6F74696669636174696F6E17
:1035B000200063616E63656C005072696E74204117
:1035C000626F72746564004469736D69737300554A
:1035D000492041626F72746564004D323500526556
:1035E00073756D65005549205061757365005061B4
:1035F0007573696E672E2E2E00726573756D65008A
:103600004D323400454550524F4D20566572736916
:103610006F6E204572726F7200454550524F4D20BB
:10362000496E646578204572726F7200454550524C
:103630004F4D20435243204572726F72003F004944
:10364000676E6F726500526573657400496E6974C8
:1036500069616C697A6520454550524F4D004D6F48
:1036600076696E672E2E2E0050726F6265205A208A
:103670004F66667365740050726F62696E672046AC
:1036800061696C65640A0050726F62696E672046FA
:1036900061696C656400205A3A200020593A200084
:1036A00042656420583A200073686F770062757431
:1036B000746F6E00626567696E0044697361626C65
:1036C0006552756E6F75740050757267654D6F72D7
:1036D000650050617573656400436F6E74696E7543
:1036E00065004C6F61642046696C616D656E742085
:1036F0005400496E736572742066696C616D656E05
:103700007420616E642073656E64204D3130380A18
:1037100000220A00556E6B6E6F776E20636F6D6DC1
:10372000616E643A2022004163637572616379209F
:1037300044656372656173696E67210044656372F5
:10374000656173696E672041636375726163792097
:1037500044657465637465642E0A004732385A0004
:1037600041636375726163793A2000206F662000BF
:1037700044696420004733342061626F7274656469
:103780002E0A004163637572616379204163686941
:103790006576656400546172676574206163637562
:1037A000726163792061636869657665642E0A00D9
:1037B000313A323D2573000A5A322D5A313D0050BC
:1037C000726F62696E67204661696C656400507251
:1037D0006F62696E67206661696C65640A004733D1
:1037E0003420497465726174696F6E3A20256900EE
:1037F0000A47333420497465726174696F6E3A20E8
:10380000003F2841296D706C696669636174696F56
:103810006E206F7574206F6620626F756E64732002
:1038200028302E352D322E30292E0A003F285429DB
:103830006172676574206163637572616379206F7B
:103840007574206F6620626F756E64732028302E49
:1038500030312D312E30292E0A003F284929746538
:10386000726174696F6E206F7574206F6620626F6D
:10387000756E64732028312D3330292E0A003F28BD
:103880005929206F7574206F6620626F756E64739E
:103890002E0A003F285829206F7574206F66206219
:1038A0006F756E64732E0A003F2853292050726F83
:1038B00062652D706F736974696F6E20696E6465DF
:1038C0007820696E76616C69642E0A003F2853295E
:1038D0002069732072657175697265642E0A004DE6
:1038E000343232205300446576696174696F6E002A
:1038F00025533A2025730046696E69736865642113
:103900000A003A207A3A2000206F662000476F694B
:103910006E6720746F3A20580043570A002064698C
:10392000723A0020616E676C653A0053746172747C
:10393000207261646975733A004D343820506F69A4
:103940006E740025533A2025642F256400506F7350
:103950006974696F6E696E67207468652070726F34
:1039600062652E2E2E0A003F4C656773206F66201D
:103970006D6F76656D656E7420696D706C617573C1
:1039800069626C652028302D3135292E0A003F20D0
:1039900028582C5929206F7574206F6620626F7526
:1039A0006E64732E0A0050726F6265206F7574200A
:1039B0006F6620626F756E6473003F53616D706C4B
:1039C000652073697A65206E6F7420706C61757301
:1039D00069626C652028342D3530292E0A004D345B
:1039E00038205A2D50726F6265205265706561747F
:1039F0006162696C69747920546573740A003F28A8
:103A000056296572626F7365206C6576656C2069F6
:103A10006D706C61757369626C652028302D342976
:103A20002E0A005374616E64617264204465766985
:103A30006174696F6E3A20002052616E67653A20AA
:103A400000204D61783A2000204D696E3A20002018
:103A50005369676D613A20004D65616E3A20000040
:103A6000002200250028002B002E00310034000227
:103A7000010000050108010B0100002100240027BE
:103A8000002A002D0030003300010100000401076E
:103A9000010A0105050505070508080808020202D4
:103AA000020A0A08080404040401010101010101D9
:103AB000010303030303030303040707070C0C0CB0
:103AC0000C0C0C0C0C020202020606060606060688
:103AD000060B0B0B0B0B0B0B0B0102102020080825
:103AE0001020401020408002010201080402010160
:103AF0000204081020408080402010080402018049
:103B0000040201804020100804020108040201019F
:103B10000204081020408001020408102040802484
:103B2000F4D43050C38E20C2A24017828B70111281
:103B30007A910D816CD90AA861E108C758660761BE
:103B40005143061E4B5D05C145A7041A41110409E6
:103B50003D9803713931034036DB0265339102D45D
:103B6000305402802E1D02632CEE01752AC501B06F
:103B700028A001102781018F2564012B244B01E02F
:103B8000223401AC211F018D200D01801FFC008417
:103B90001EED00971DDF00B81CD200E61BC60020FA
:103BA0001BBC00641AB200B219A8000A19A0006A6E
:103BB000189900D117910040178B00B51684003179
:103BC000167E00B31579003A157300C7146F0058BC
:103BD000146A00EE1366008813630025135E00C7A5
:103BE000125B006C12570015125400C11151007085
:103BF000114F0021114B00D61049008D104700468F
:103C000010440002104200C00F4000800F3E0042EE
:103C10000F3C00060F3B00CB0E3800930E37005CC4
:103C20000E3500270E3400F30D3200C10D31009027
:103C30000D3000600D2E00320D2D00050D2C00D929
:103C40000C2B00AE0C2900850C29005C0C270035DC
:103C50000C27000E0C2600E80B2400C40B2400A047
:103C60000B23007D0B23005A0B2100390B21001878
:103C70000B2000F80A1F00D90A1E00BB0A1E009D77
:103C80000A1D00800A1D00630A1C00470A1B002C45
:103C90000A1B00110A1A00F7091A00DD091900C4ED
:103CA000091900AB091900920917007B0918006374
:103CB0000917004C09160036091600200916000ADB
:103CC000091500F5081500E0081400CC081400B828
:103CD000081400A4081400900813007D0812006B5B
:103CE0000813005808120046081200340811002377
:103CF0000811001208110001081100F0071000E07F
:103D0000071000D0071000C0071000B0070F00A177
:103D100007100091070E0083070F0074070F00655E
:103D2000070E0057070E0049070E003B070D002E37
:103D3000070E0020070D0013070D0006070D00F900
:103D4000060C00ED060D00E0060C00D4060C00C8C1
:103D5000060C00BC060C00B0060C00A4060B009973
:103D6000060C008D060B0082060B0077060B006C1C
:103D7000060B0061060A0057060B004C060A0042BB
:103D8000060A0038060A002E060A0024060A001A4F
:103D9000060A001006090007060A00FD050900F4DE
:103DA000050900EB050900E2050900D9050900D065
:103DB000050900C7050900BE050900B5050800ADE5
:103DC000050800A50509009C050800940508008C5D
:103DD000050800840508007C050800740508006CCF
:103DE000050700650508005D050700560508004E3B
:103DF00005070047050700400508003805070031A2
:103E00000507002A050700230507001C0506001604
:103E10000507000F0507000805060002050700FB5F
:103E2000040600F5040700EE040600E8040600E2BC
:103E3000040700DB040600D5040600CF040600C911
:103E4000040600C3040600BD040600B7040600B162
:103E5000040500AC040600A6040600A00405009BAF
:103E600004060095040500900406008A04050085F8
:103E7000040500800406007A04050075040500703E
:103E80000405006B04050066040500610405005C80
:103E900004050057040500520405004D04050048C0
:103EA000040500430405003E0404003A04050035FF
:103EB000040500300404002C04050027040400233A
:103EC0000405001E0404001A040400160405001171
:103ED0000404000D040400090405000404040000A7
:103EE000040400FC030400F8030400F4030400F0DD
:103EF000030400EC030400E8030400E4030400E00E
:103F0000030400DC030400D8030400D4030400D03D
:103F1000030400CC030400C8030300C5030300240A
:103F2000F404D9201BC40C5C0E9804C4095F02651C
:103F3000077101F405F900FB04B30048048700C1D0
:103F40000369005803550003034500BE023A00848C
:103F500002310053022A002902250004022000E455
:103F6000011C00C8011900AF01170098011400845A
:103F7000011300710110006101100051010E004396
:103F8000010D0036010B002B010B0020010B001569
:103F90000109000C01090003010800FB000800F3FF
:103FA000000800EB000700E4000600DE000600D871
:103FB000000600D2000600CC000500C7000500C2C4
:103FC000000500BD000400B9000400B5000400B104
:103FD000000400AD000400A9000400A5000300A235
:103FE0000003009F0004009B00030098000300955D
:103FF00000020093000300900003008D0002008B7C
:104000000003008800020086000200840003008193
:104010000002007F0002007D0002007B00020079A8
:1040200000020077000100760002007400020072B6
:10403000000100710002006F0002006D0001006CC1
:104040000002006A000100690002006700010066CA
:1040500000010065000100640002006200010061CF
:10406000000100600001005F0002005D0001005CD3
:104070000001005B0001005A0001005900010058D6
:1040800000010057000100560001005500010054D6
:1040900000010053000000530001005200010051D4
:1040A000000100500001004F0001004E0000004ED2
:1040B0000001004D0001004C0001004B0000004BCE
:1040C0000001004A000100490001004800000048CA
:1040D00000010047000100460000004600010045C5
:1040E00000000045000100440001004300000043BF
:1040F00000010042000000420001004100000041B8
:10410000000100400001003F0000003F0001003EB0
:104110000000003E0001003D0000003D0001003CA9
:104120000000003C0000003C0001003B0000003BA0
:104130000001003A0000003A000100390000003997
:10414000000100380000003800000038000100378E
:104150000000003700010036000000360000003685
:10416000000100350000003500000035000100347A
:104170000000003400000034000100330000003370
:104180000000003300010032000000320000003265
:10419000000100310000003100000031000100305A
:1041A00000000030000000300001002F0000002F50
:1041B0000000002F0000002F0001002E0000002E44
:1041C0000000002E0001002D0000002D0000002D39
:1041D0000000002D0001002C0000002C0000002C2D
:1041E0000000002C0001002B0000002B0000002B21
:1041F0000000002B0001002A0000002A0000002A15
:104200000000002A00010029000000290000002908
:1042100000000029000000290001002800000028FB
:1042200000000028000000280000002800010027EE
:1042300000000027000000270000002700000027E2
:1042400000010026000000260000002600000026D5
:1042500000000026000100250000002500000025C8
:1042600000000025000000250000002500010024BA
:1042700000000024000000240000002400000024AE
:1042800000010023000000230000002300000023A1
:104290000000002300000023000000230001002292
:1042A0000000002200000022000000220000002286
:1042B0000000002200010021000000210000002178
:1042C000000000210000002100000021000000216A
:1042D000000100200000002000000020000000205D
:1042E000000000200000002000000020000000204E
:1042F0000001001F0000001F0000001F0000001F41
:104300000000001F0000001F0000001F0001001E31
:104310000000001E0000001E0000001E000000C281
:104320003100001C260000F4190000D80F0000EB3B
:10433000080000C004000075020000400100004FAA
:1043400046460A00466164652048656967687420CE
:1043500000426564204C6576656C696E6720004696
:1043600061696C656420746F20656E61626C6520A4
:10437000426564204C6576656C696E670A00496E1B
:1043800076616C6964206D6573682E0A0050726FE7
:1043900062696E6720506F696E740025532025692D
:1043A0002F2569002E0A002F0050726F62696E6718
:1043B000206D65736820706F696E7420002028443A
:1043C000525952554E2900473239204175746F2099
:1043D000426564204C6576656C696E67003F2028F5
:1043E0004C2C522C462C4229206F7574206F66206D
:1043F000626F756E64732E0A003F285629657262DB
:104400006F7365206C6576656C20696D706C617585
:104410007369626C652028302D34292E0A004261B0
:1044200064205A2076616C75650A004E6F206269BF
:104430006C696E65617220677269640A004361701D
:104440003A004D4541545041434B00434F4F4C457A
:10445000525F54454D5045524154555245004348D2
:10446000414D4245525F54454D504552415455527D
:104470004500424142595354455050494E4700412E
:10448000524353004D4F54494F4E5F4D4F44455397
:1044900000544845524D414C5F50524F544543548F
:1044A000494F4E004C4F4E475F46494C454E414D9B
:1044B00045004155544F5245504F52545F53445F4D
:1044C0005354415455530053445F57524954450087
:1044D00052455045415400534443415244005052C8
:1044E0004F4D50545F535550504F525400484F5306
:1044F000545F414354494F4E5F434F4D4D414E44ED
:104500005300454D455247454E43595F5041525324
:10451000455200434153455F4C494748545F42521E
:10452000494748544E45535300544F47474C455F05
:104530004C494748545300534F4654574152455FE6
:10454000504F574552004255494C445F50455243E5
:10455000454E54004C4556454C494E475F444154E6
:1045600041005A5F50524F42450052554E4F5554EC
:10457000004155544F4C4556454C005052494E54FD
:104580005F4A4F420050524F4752455353004155E6
:10459000544F5245504F52545F54454D5000415571
:1045A000544F5245504F52545F504F5300564F4C4A
:1045B000554D455452494300454550524F4D0042D8
:1045C000494E4152595F46494C455F5452414E5302
:1045D0004645520053455249414C5F584F4E5F5833
:1045E0004F4646004649524D574152455F4E414D58
:1045F000453A4D61726C696E20322E302E392E3163
:1046000020284A756C202038203230323120313950
:104610003A34313A31342920534F555243455F43A0
:104620004F44455F55524C3A6769746875622E6312
:104630006F6D2F4D61726C696E4669726D77617234
:10464000652F4D61726C696E2050524F544F434F2D
:104650004C5F56455253494F4E3A312E30204D4112
:104660004348494E455F545950453A4D43332076AF
:10467000312E302045585452554445525F434F55D2
:104680004E543A3120555549443A63656465326168
:1046900032662D343161322D343734382D39623160
:1046A000322D6335356336326633363766660A0037
:1046B00050726F6265204F6666736574205A0050B1
:1046C000726F6265204F6666736574205A00290A0E
:1046D0000020746F20003F5A206F7574206F662091
:1046E00072616E6765202800290A0020746F20001F
:1046F0003F59206F7574206F662072616E67652068
:10470000282D00290A0020746F20003F58206F7563
:1047100074206F662072616E676520282D005072CC
:104720006F6265204F66667365742058006F6B0A70
:1047300000526573656E643A20006F6B00256973E3
:104740000025696D20256973002569682025696D3C
:104750002025697300256964202569682025696D15
:1047600020256973002569792025696420256968F9
:104770002025696D2025697300436F6F6C696E6732
:104780002E2E2E0048656174696E672E2E2E004510
:1047900020255300506C6561736520526573657404
:1047A000005052494E5445522048414C5445440013
:1047B00025533A20255300706F7765726F66660047
:1047C0004B494C4C45442E20005072696E74657202
:1047D0002068616C7465642E206B696C6C282920DC
:1047E00063616C6C6564210A006563686F3A00451B
:1047F00072726F723A004F4646004F4E0042696C2B
:10480000696E656172204C6576656C696E672047DC
:104810007269643A0A0020436F756E7420583A003A
:104820000042656400453100626564002C207379A4
:104830007374656D2073746F7070656421204865B2
:10484000617465725F49443A200048656174696E1D
:1048500067204661696C65640048656174696E67CC
:10486000206661696C6564004D3131322053687592
:1048700074646F776E00202D20496E76616C6964D8
:10488000206578747275646572206E756D626572EC
:1048900020210A0000000A0B02090C0D0E08070374
:1048A0000401000000000000000000000000000003
:1048B00000000000000000000000000000000000F8
:1048C00012111000000000000000000000000000B5
:1048D00000000000000000000000E900F3001124C7
:1048E0001FBECFEFD1E2DEBFCDBF00E00CBF13E0B3
:1048F000A0E0B2E0E4ECFCEC02E00BBF02C00790E9
:104900000D92A439B107D9F726E1A4E9B3E001C0BB
:104910001D92AE3AB207E1F714E2CEE6D4E200E02F
:1049200006C021970109802FFE010F940063CD3648
:10493000D10780E00807A9F70F94F64D0D94516652
:104940000C9400002F923F924F925F926F927F9251
:104950008F929F92AF92BF92CF92DF92EF92FF928F
:104960000F931F93CF93DF93CDB7DEB7E1970FB6C9
:10497000F894DEBF0FBECDBF89AB20911A0E28ABD5
:1049800021E020931A0E80912B15803511F40C94A0
:1049900070363CF4873499F08D3409F478C30C9464
:1049A0006E36823514F40C946E36843514F40C94FF
:1049B0007036843511F40C945C360C946E3680910C
:1049C0002C1590912D158B31910509F431C1B8F456
:1049D0008430910538F42091780C8230910508F4E8
:1049E00041C04AC08531910511F40C9470368A316A
:1049F000910509F419C1049709F045C3D6C0823264
:104A0000910509F4E7C150F48D31910509F44BC1CA
:104A100008F42EC14E9709F45FC135C38A3591055C
:104A200009F4BCC220F48A9709F4D8C12CC38B3591
:104A3000910509F4B7C28C35910509F024C377EAD2
:104A4000272E72E0372EE5EFEE2EE3E0FE2E20E279
:104A500032E03DA32CA3F0ECCF2EF4E0DF2E00E0FB
:104A600010E0E0C2233010F40C9470360E945AF724
:104A70000E94BF5B0C947036233010F40C94703697
:104A800011E0029709F010E00E945AF719821A8289
:104A90001B821C821D821E821F82188682E50E9454
:104AA000B846882309F44BC00E9433466B017C0151
:104AB00020E030E0A9010F94275C882309F455C059
:104AC0008091200290912102A0912202B0912302B4
:104AD0008CA39DA3AEA3BFA3809124029091250235
:104AE000A0912602B091270288A799A7AAA7BBA7E1
:104AF0008090040E9090050EA090060EB090070EC8
:104B00004090080E5090090E60900A0E70900B0EA7
:104B1000A50194016CA17DA18EA19FA10F94275C9A
:104B200081110C948436A301920168A579A58AA508
:104B30009BA50F94275C8823C1F00C94843689E4EC
:104B40000E94B846882331F00E94334669837A83F5
:104B50008B839C838AE40E94B846882331F00E94AC
:104B600033466D837E838F83988720E030E0A901F0
:104B700069817A818B819C810F94275C81110C94CF
:104B8000383720E030E0A9016D817E818F819885E2
:104B90000F94275C81110C9438370F9438438DE8BB
:104BA00093E00F945D420C94703680E50E94B84605
:104BB000882329F00F941C146B017C0103C0C12CC5
:104BC000D12C760183E50E94B846882361F00E94CB
:104BD000334620E030E04AE754E40F948C5C0F94B5
:104BE00052646B017C010E9438CE8091780D811156
:104BF00005C060E083EA93E00F94F7020F943D4B09
:104C0000C60ED71EE81EF91E0F943D4BDC01CB01EA
:104C10008C199D09AE09BF09B7FD02C00C9470360E
:104C200080E00E94CA3BF0CF0E94E3460C947036AD
:104C300087E00E948D6581110C9470368CE0EBE961
:104C4000F2E0DE01119601900D928A95E1F780E580
:104C50000E94B846882321F00E940046862F01C09A
:104C600080E0BE016F5F7F4F0E94FE960C9470360D
:104C700087E00E94F15A81110C944B3780912E15D8
:104C800090912F15A0913015B09131153EE0B69559
:104C9000A795979587953A95D1F780FF02C00C9418
:104CA00070360C944B370F943D4B6093A404709373
:104CB000A5048093A6049093A70480917F0C882379
:104CC00011F40C94843860E08FE40E94D146811185
:104CD0000C9470360C9484380091CB121091CC1245
:104CE000D8012D913D914D915C9160912002709180
:104CF000210280912202909123020F940963AB015B
:104D0000BC0188E50F942C1469837A838B839C8380
:104D1000F801248135814681578160912402709188
:104D2000250280912602909127020F940963AB011E
:104D3000BC0189E50F942C146D837E838F83988743
:104D4000BE016B5F7F4FCE0101960F946F2D8823BC
:104D500011F40C94703680E00F94C73E0E946B5E95
:104D600061E085E40E94D146182F01E021E0482F40
:104D7000BE016B5F7F4FCE0101960F94B4086B01AB
:104D80007C019B01AC010F94B865811119C0498168
:104D90005A816B817C818FED93E00F9407434D81A5
:104DA0005E816F8178858AED93E00F940743B701A8
:104DB000A60185ED93E00F9407438AE00E94663BCD
:104DC0000E94525E113011F40F94552D0E94DD6047
:104DD0000C9470360F940A150C9470368091780CF0
:104DE000833010F40C94703689E40E94B846E82EA3
:104DF000882321F00E943046082F01C000E08AE499
:104E00000E94B846F82E882321F00E943046182FC1
:104E100001C010E0EE2011F0043020F4FF2041F03A
:104E2000143030F087EE93E00F945D420C947036AE
:104E300080E1E0E2F2E0A4E0BEE001900D928A950C
:104E4000E1F7EE2019F1602F000F770B880B990B1B
:104E50000F942D5C2091F00D3091F10D4091F20DE9
:104E60005091F30D0F948C5C2091F80D3091F90D59
:104E70004091FA0D5091FB0D0F9409636093040E5D
:104E80007093050E8093060E9093070EFF2019F184
:104E9000612F110F770B880B990B0F942D5C2091CC
:104EA000F40D3091F50D4091F60D5091F70D0F94E2
:104EB0008C5C2091FC0D3091FD0D4091FE0D5091C8
:104EC000FF0D0F9409636093080E7093090E809391
:104ED0000A0E90930B0E60E080E50E94D146882375
:104EE000C1F1EE20D1F0E091CB12F091CC122081F3
:104EF0003181428153816091040E7091050E809141
:104F0000060E9091070E0F9408636093040E709341
:104F1000050E8093060E9093070EFF20D1F0E091CE
:104F2000CB12F091CC12248135814681578160915A
:104F3000080E7091090E80910A0E90910B0E0F943D
:104F400008636093080E7093090E80930A0E909385
:104F50000B0E40E050E0BA0186E40F942C146B0174
:104F60007C0120E030E0A9010F94306518164CF464
:104F700020E030E040E752E4C701B6010F94E5635A
:104F800003C060E070E0CB0169837A838B839C83EC
:104F9000CE0101960E948A5E0C94703610929E0398
:104FA0000C9470368FE080939E030C9470360E94B0
:104FB00033462B013C01133049F0F6012081318149
:104FC000428153810F9408632B013C01ACA1BDA128
:104FD0002D913D914D915C91C301B2010F940863F5
:104FE0004B015C012DEB37E346E855EB0F94306540
:104FF00087FD20C02DEB37E346E855E3C501B4013A
:105000000F94275C1816B4F01F5FB4E0EB0EF11C90
:10501000ECA1FDA13496FDA3ECA3F4E0CF0ED11CCE
:10502000143039F1D1018D911D010E94B8468823B9
:1050300059F3BDCF133099F0A5019401F7016081B8
:105040007181828193810F940963D7016D937D9360
:105050008D939C931397812F0E94D15AD5CF409264
:105060002C0250922D0260922E0270922F0201E0CB
:10507000CBCF002321F08CE292E00E9449CE0E9427
:10508000DD600C9470360F94F8060C9470368091A5
:105090002C1590912D158937910509F457C708F003
:1050A000FCC08E34910509F45FC408F063C08A31F6
:1050B000910509F414C358F58431910509F480C2AF
:1050C00078F48131910509F467C228F4029708F455
:1050D00019C20C945936429709F4EAC50C94593612
:1050E0008731910509F4B3C248F48531910509F47B
:1050F00098C2469709F499C20C94593688319105A3
:1051000009F4BAC2499709F4CFC20C9459368F31C9
:10511000910509F401C478F48C31910509F447C371
:1051200008F4EBC28D31910509F449C34E9709F497
:105130004DC30C9459368B34910509F40DC460F4B9
:105140008032910509F4A3C3C09711F00C9459362D
:105150000F94B8190C9470368C34910509F400C47E
:105160008D34910511F00C94593681E00E9417CCD2
:105170000C9470368C36910511F40C94703608F04E
:105180004CC08535910509F4C9C550F582359105A6
:1051900009F47EC5D8F48135910511F00C94593687
:1051A0000E94EDA50E9480CF81E00E9417CC0E9452
:1051B000923A68EE73E080E090E00F941A4260E06B
:1051C0008FE695E00F94F7020C94703683359105C5
:1051D00009F466C58435910509F46AC50C945936FD
:1051E0008936910509F457C470F48C35910509F49A
:1051F000B8C58836910511F00C94593680E00F94AB
:10520000E4350C9470368A36910509F458C48B360F
:10521000910509F491C40C9459368237910509F42B
:105220003DC6D0F48F36910509F4A4C450F48D36F0
:10523000910509F42BC48E36910509F488C40C94A9
:1052400059368037910511F40C94703681379105E9
:1052500009F4D5C40C9459368637910509F439C63A
:1052600050F48337910509F420C68537910509F478
:105270001FC60C9459368737910509F464C68837E0
:10528000910511F00C94593681E08093270C80939E
:10529000260C0E9473610C9470368A3931E09307B2
:1052A00011F40C94703608F08CC0833D910509F41C
:1052B000D4C708F040C0883C910509F4C2C6E8F4A0
:1052C0008139910509F449C650F48C38910511F0E3
:1052D0000C94593680E00E9489820C9470368B3988
:1052E000910509F4AEC48E3B910511F00C9459362A
:1052F00081E00E9489820C9470368C3C910509F4FF
:1053000029C750F4893C910509F4E2C68B3C91050C
:1053100009F401C70C9459368D3C910509F44EC728
:105320008E3C910511F00C945936EAE2EE2EECE039
:10533000FE2E10E04CC78E32B1E09B0711F40C94A6
:10534000BC32C0F48D3D910509F4CBC730F48C3DDF
:10535000910509F485C70C9459368232F1E09F0714
:1053600011F40C94C6318D32914011F40C94C93172
:105370000C945936803931E0930711F40C940233C0
:1053800068F48F32B1E09B0711F40C94FF32803344
:10539000914011F40C9449320C9459368139F1E062
:1053A0009F0711F40C9405338239914011F00C944D
:1053B00059360F94522D0F94552D0E94DD600C9498
:1053C0007036883F31E0930711F40C945F3408F095
:1053D0004FC08C3AB1E09B0711F40C948C33E8F485
:1053E000843AF1E09F0711F40C94153338F48C39AA
:1053F000914011F40C940B330C945936853AA1E08A
:105400009A0711F40C941833863A914011F00C94D9
:1054100059360F9443140C947036853FE1E09E0793
:1054200011F40C94593478F4863E21E0920711F47B
:105430000C94EB33843F914011F00C9459360E9448
:1054400078C80C947036863FA1E09A0711F40C944A
:105450005C34873F914011F00C94593661E083E54C
:105460000E94D14691E089270E949ED50C94703607
:105470008335E3E09E0711F40C94B83518F58B35AD
:1054800022E0920711F40C947E3478F48C30A2E080
:105490009A0711F40C946F348835924011F00C94F3
:1054A00059360E9442F90C9470368D3BE2E09E071B
:1054B00011F40C94F7348E3B924011F40C94FA34AE
:1054C0000C945936803A23E0920709F417C268F425
:1054D0008C36A3E09A0711F40C947036843893400C
:1054E00011F40C94BB350C945936873EE3E09E07CB
:1054F00011F40C942136893E934011F40C942F360C
:105500000C94593680E50E94B846882329F00F9400
:105510001C146B017C0103C0C12CD12C760183E5E6
:105520000E94B846882361F00E94334620E030E0B4
:105530004AE754E40F948C5C0F9452646B017C0135
:105540000E9438CE8091291590912A15009721F05C
:1055500061E00F94690305C060E080E194E00F947E
:10556000F70280912C1590912D15892B19F068E088
:1055700074E002C060E074E020E030E049ED56E302
:1055800082E00E94FE5040E0C701B6010E94EB415C
:105590000E942BB80C94703680912E1584FF02C0A7
:1055A0000C94A1388091301587FF02C00C94A1386B
:1055B00080913115837011F00C94A1380C94E0386F
:1055C0008091601484FF25C08BE394E00F945D42CA
:1055D0008091601484FF17C082E992E10E94E590F7
:1055E0008BE1E2E9F2E1DE01119601900D928A95DC
:1055F000E1F760E070E0CE0101960E94C893CE0111
:1056000001960E94D5928CE294E00F945D420C9436
:1056100070360F943B438CE494E00F945D420C94FD
:1056200070360E94588F0C9470368091601482FFFF
:1056300004C087FD02C00C9470360E9415888091CA
:1056400060148F7E8064809360140C947036E091B7
:105650002915F0912A158081882329F0803209F4D8
:1056600010823196F8CF60E08091291590912A152B
:105670000E9424880C9470360E945D3A882321F0A1
:105680000E948C890E94803A61E089EF95E30E9434
:10569000A85047EC55E366E574E085E00F94AB084D
:1056A0000E942BB80C9470368091601482FF05C064
:1056B00087FD03C08B7F809360140E94D1610E949C
:1056C0002BB848E654E06FE674E084E00F94AB0832
:1056D00061E082E694E00E94A8500C9470368091BC
:1056E000601484FD02C00C94703683E50E94B846B5
:1056F00081110C94EF380C94703680912E15909196
:105700002F15A0913015B091311542E0B695A795AF
:10571000979587954A95D1F780FF1DC082E894E060
:105720000F945D4280914112882361F0BE016F5F4A
:105730007F4F8EE392E10E94B08FCE0101960E94CE
:10574000668D04C088E794E00F945D428AE00E9471
:10575000663B0C9470368091601482FF22C04091A9
:105760005C1450915D1460915E1470915F1481E936
:1057700094E00F94E7428FE20E94663B60915814D8
:105780007091591480915A1490915B144AE00E94D0
:105790008D878DE00E94663B8AE00E94663B0C94F8
:1057A000703683EA94E00F945D420C9470368091D9
:1057B000291590912A150E9440890C947036809189
:1057C00060148E7F809360140C9470368091601406
:1057D00084FD02C00C9470360F94DE068091601434
:1057E00084FD02C00C9470364091291550912A1501
:1057F000BE01645E7F4F80E00F94D5218C0100973D
:1058000011F40C9470366C8D7D8D19821C8222E00F
:10581000AC01CE0101960E94DA92811102C0F12CF6
:1058200014C0CE0101960F9443218823C1F361E097
:10583000CE0101960E94048F009789F325EEDC01CA
:105840002C931C820E94158BF82ECE0101960E948B
:10585000D592B801FF2089F08FEC94E00F942F438C
:105860008AE00E94663B10925C1410925D141092C4
:105870005E1410925F140C94703687EB94E00F94D2
:105880002F4384EB94E00F945D420C94703680912A
:10589000601482FF03C087FF0E9438CE809160149D
:1058A00084FD02C00C94703660E080E50E94D14611
:1058B000182F682F8091291590912A150E9424880D
:1058C00083E50E94B846882381F00E940046AB0120
:1058D000BC0140935C1450935D1460935E1470930C
:1058E0005F148EE392E10E94728D0E948C891111E7
:1058F0000C9470360E94803A0C94703620912915D1
:1059000030912A1590916014926090936014C901AF
:105910000E9440890C9470360E9482616C8F7D8F4A
:105920008E8F9F8FBE016F5F7F4FCE014C960F947D
:105930008B3660E0CE0101960F9469030F943B43D0
:10594000BE016F5F7F4F8DED94E00F942F438AE08F
:105950000E94663B0C9470360E94803A0C9470361C
:105960000E94D1610C94703660E070E083E50E9483
:10597000C4468E34910531F40E948DCC0E942BB820
:105980000C94703688E495E00F945D426091160C9B
:105990007091170C8FE395E00F94F7426091180C0B
:1059A0007091190C82E395E00F94F7426091160C08
:1059B0007091170C8091180C9091190C681B790B41
:1059C0008091BF04815021E030E0823010F020E06F
:1059D00030E0621B730B87E295E00F94F7428AE098
:1059E0000E94663B8FE195E00F945D4280911A0C16
:1059F00090911B0CA0911C0CB0911D0C8C8F9D8F55
:105A0000AE8FBF8FBE016F5F7F4FCE014C960F945C
:105A10008B36BE016F5F7F4F82E195E00F942F437D
:105A200080911E0C90911F0CA091200CB091210C24
:105A30008C8F9D8FAE8FBF8FBE016F5F7F4FCE016A
:105A40004C960F948B36BE016F5F7F4F82E095E0DE
:105A50000F942F4320E030E04AE754E46091220C99
:105A60007091230C8091240C9091250C0F94E56388
:105A7000AB01BC018AEE94E00F9407438DE60E94CF
:105A8000663B8AE00E94663B0C94703681E00F947E
:105A9000E4350C9470360E943EF8182F87FD0AC03A
:105AA00080E595E00F945D42812F0E94ACA08AE0D2
:105AB0000E94663BB8A9B0931A0E0C94293A60E094
:105AC00080E50F94182F81110C94703680912E155B
:105AD00080FF05C06091F804062F10E002C00FEFB0
